{
  "_format": "hh-sol-artifact-1",
  "contractName": "CryptoKDO",
  "sourceName": "contracts/CryptoKDO.sol",
  "abi": [
    {
      "inputs": [],
      "stateMutability": "nonpayable",
      "type": "constructor"
    },
    {
      "inputs": [
        {
          "internalType": "address",
          "name": "owner",
          "type": "address"
        }
      ],
      "name": "OwnableInvalidOwner",
      "type": "error"
    },
    {
      "inputs": [
        {
          "internalType": "address",
          "name": "account",
          "type": "address"
        }
      ],
      "name": "OwnableUnauthorizedAccount",
      "type": "error"
    },
    {
      "anonymous": false,
      "inputs": [
        {
          "indexed": false,
          "internalType": "uint256",
          "name": "id",
          "type": "uint256"
        },
        {
          "indexed": false,
          "internalType": "address",
          "name": "giver",
          "type": "address"
        },
        {
          "indexed": false,
          "internalType": "uint256",
          "name": "amount",
          "type": "uint256"
        }
      ],
      "name": "DonationDone",
      "type": "event"
    },
    {
      "anonymous": false,
      "inputs": [
        {
          "indexed": true,
          "internalType": "address",
          "name": "previousOwner",
          "type": "address"
        },
        {
          "indexed": true,
          "internalType": "address",
          "name": "newOwner",
          "type": "address"
        }
      ],
      "name": "OwnershipTransferred",
      "type": "event"
    },
    {
      "anonymous": false,
      "inputs": [
        {
          "components": [
            {
              "internalType": "uint256",
              "name": "amount",
              "type": "uint256"
            },
            {
              "internalType": "address",
              "name": "owner",
              "type": "address"
            },
            {
              "internalType": "address",
              "name": "receiver",
              "type": "address"
            },
            {
              "internalType": "string",
              "name": "title",
              "type": "string"
            },
            {
              "internalType": "string",
              "name": "description",
              "type": "string"
            },
            {
              "internalType": "address[]",
              "name": "givers",
              "type": "address[]"
            }
          ],
          "indexed": false,
          "internalType": "struct CryptoKDO.PrizePool",
          "name": "prizePool",
          "type": "tuple"
        }
      ],
      "name": "PrizePoolClosed",
      "type": "event"
    },
    {
      "anonymous": false,
      "inputs": [
        {
          "indexed": false,
          "internalType": "uint256",
          "name": "id",
          "type": "uint256"
        },
        {
          "indexed": false,
          "internalType": "address",
          "name": "owner",
          "type": "address"
        },
        {
          "indexed": false,
          "internalType": "address",
          "name": "receiver",
          "type": "address"
        },
        {
          "indexed": false,
          "internalType": "address[]",
          "name": "givers",
          "type": "address[]"
        },
        {
          "indexed": false,
          "internalType": "string",
          "name": "title",
          "type": "string"
        },
        {
          "indexed": false,
          "internalType": "string",
          "name": "description",
          "type": "string"
        }
      ],
      "name": "PrizePoolCreated",
      "type": "event"
    },
    {
      "inputs": [
        {
          "internalType": "uint256",
          "name": "index",
          "type": "uint256"
        }
      ],
      "name": "closePrizePool",
      "outputs": [],
      "stateMutability": "nonpayable",
      "type": "function"
    },
    {
      "inputs": [
        {
          "internalType": "address",
          "name": "receiver",
          "type": "address"
        },
        {
          "internalType": "address[]",
          "name": "givers",
          "type": "address[]"
        },
        {
          "internalType": "string",
          "name": "title",
          "type": "string"
        },
        {
          "internalType": "string",
          "name": "description",
          "type": "string"
        }
      ],
      "name": "createPrizePool",
      "outputs": [],
      "stateMutability": "nonpayable",
      "type": "function"
    },
    {
      "inputs": [
        {
          "internalType": "uint256",
          "name": "index",
          "type": "uint256"
        }
      ],
      "name": "donate",
      "outputs": [],
      "stateMutability": "payable",
      "type": "function"
    },
    {
      "inputs": [],
      "name": "getAllPrizePools",
      "outputs": [
        {
          "components": [
            {
              "internalType": "uint256",
              "name": "amount",
              "type": "uint256"
            },
            {
              "internalType": "address",
              "name": "owner",
              "type": "address"
            },
            {
              "internalType": "address",
              "name": "receiver",
              "type": "address"
            },
            {
              "internalType": "string",
              "name": "title",
              "type": "string"
            },
            {
              "internalType": "string",
              "name": "description",
              "type": "string"
            },
            {
              "internalType": "address[]",
              "name": "givers",
              "type": "address[]"
            }
          ],
          "internalType": "struct CryptoKDO.PrizePool[]",
          "name": "",
          "type": "tuple[]"
        }
      ],
      "stateMutability": "view",
      "type": "function"
    },
    {
      "inputs": [
        {
          "internalType": "uint256",
          "name": "index",
          "type": "uint256"
        }
      ],
      "name": "getPrizePool",
      "outputs": [
        {
          "components": [
            {
              "internalType": "uint256",
              "name": "amount",
              "type": "uint256"
            },
            {
              "internalType": "address",
              "name": "owner",
              "type": "address"
            },
            {
              "internalType": "address",
              "name": "receiver",
              "type": "address"
            },
            {
              "internalType": "string",
              "name": "title",
              "type": "string"
            },
            {
              "internalType": "string",
              "name": "description",
              "type": "string"
            },
            {
              "internalType": "address[]",
              "name": "givers",
              "type": "address[]"
            }
          ],
          "internalType": "struct CryptoKDO.PrizePool",
          "name": "",
          "type": "tuple"
        }
      ],
      "stateMutability": "view",
      "type": "function"
    },
    {
      "inputs": [],
      "name": "getTotalPrizePools",
      "outputs": [
        {
          "internalType": "uint256",
          "name": "",
          "type": "uint256"
        }
      ],
      "stateMutability": "view",
      "type": "function"
    },
    {
      "inputs": [],
      "name": "owner",
      "outputs": [
        {
          "internalType": "address",
          "name": "",
          "type": "address"
        }
      ],
      "stateMutability": "view",
      "type": "function"
    },
    {
      "inputs": [],
      "name": "renounceOwnership",
      "outputs": [],
      "stateMutability": "nonpayable",
      "type": "function"
    },
    {
      "inputs": [
        {
          "internalType": "address",
          "name": "newOwner",
          "type": "address"
        }
      ],
      "name": "transferOwnership",
      "outputs": [],
      "stateMutability": "nonpayable",
      "type": "function"
    },
    {
      "stateMutability": "payable",
      "type": "receive"
    }
  ],
  "bytecode": "0x60806040523480156200001157600080fd5b5033600073ffffffffffffffffffffffffffffffffffffffff168173ffffffffffffffffffffffffffffffffffffffff1603620000885760006040517f1e4fbdf70000000000000000000000000000000000000000000000000000000081526004016200007f9190620001a9565b60405180910390fd5b6200009981620000a060201b60201c565b50620001c6565b60008060009054906101000a900473ffffffffffffffffffffffffffffffffffffffff169050816000806101000a81548173ffffffffffffffffffffffffffffffffffffffff021916908373ffffffffffffffffffffffffffffffffffffffff1602179055508173ffffffffffffffffffffffffffffffffffffffff168173ffffffffffffffffffffffffffffffffffffffff167f8be0079c531659141344cd1fd0a4f28419497f9722a3daafe3b4186f6b6457e060405160405180910390a35050565b600073ffffffffffffffffffffffffffffffffffffffff82169050919050565b6000620001918262000164565b9050919050565b620001a38162000184565b82525050565b6000602082019050620001c0600083018462000198565b92915050565b612cec80620001d66000396000f3fe60806040526004361061008a5760003560e01c8063b742313411610059578063b742313414610140578063d1b2697414610169578063ee5ae57214610192578063f14faf6f146101bd578063f2fde38b146101d957610091565b8063715018a6146100965780637822be4a146100ad5780638da5cb5b146100ea578063b2a28fc01461011557610091565b3661009157005b600080fd5b3480156100a257600080fd5b506100ab610202565b005b3480156100b957600080fd5b506100d460048036038101906100cf9190611aef565b610216565b6040516100e19190611d42565b60405180910390f35b3480156100f657600080fd5b506100ff61052c565b60405161010c9190611d73565b60405180910390f35b34801561012157600080fd5b5061012a610555565b6040516101379190611d9d565b60405180910390f35b34801561014c57600080fd5b5061016760048036038101906101629190611e9f565b610562565b005b34801561017557600080fd5b50610190600480360381019061018b9190611aef565b610945565b005b34801561019e57600080fd5b506101a7610d8a565b6040516101b491906120c1565b60405180910390f35b6101d760048036038101906101d29190611aef565b611051565b005b3480156101e557600080fd5b5061020060048036038101906101fb91906120e3565b611206565b005b61020a61128c565b6102146000611313565b565b61021e6118f3565b600180549050821061022f836113d7565b60405160200161023f9190612172565b6040516020818303038152906040529061028f576040517f08c379a000000000000000000000000000000000000000000000000000000000815260040161028691906121e2565b60405180910390fd5b50600182815481106102a4576102a3612204565b5b90600052602060002090600602016040518060c0016040529081600082015481526020016001820160009054906101000a900473ffffffffffffffffffffffffffffffffffffffff1673ffffffffffffffffffffffffffffffffffffffff1673ffffffffffffffffffffffffffffffffffffffff1681526020016002820160009054906101000a900473ffffffffffffffffffffffffffffffffffffffff1673ffffffffffffffffffffffffffffffffffffffff1673ffffffffffffffffffffffffffffffffffffffff16815260200160038201805461038390612262565b80601f01602080910402602001604051908101604052809291908181526020018280546103af90612262565b80156103fc5780601f106103d1576101008083540402835291602001916103fc565b820191906000526020600020905b8154815290600101906020018083116103df57829003601f168201915b5050505050815260200160048201805461041590612262565b80601f016020809104026020016040519081016040528092919081815260200182805461044190612262565b801561048e5780601f106104635761010080835404028352916020019161048e565b820191906000526020600020905b81548152906001019060200180831161047157829003601f168201915b505050505081526020016005820180548060200260200160405190810160405280929190818152602001828054801561051c57602002820191906000526020600020905b8160009054906101000a900473ffffffffffffffffffffffffffffffffffffffff1673ffffffffffffffffffffffffffffffffffffffff16815260200190600101908083116104d2575b5050505050815250509050919050565b60008060009054906101000a900473ffffffffffffffffffffffffffffffffffffffff16905090565b6000600180549050905090565b600073ffffffffffffffffffffffffffffffffffffffff168773ffffffffffffffffffffffffffffffffffffffff16036105d1576040517f08c379a00000000000000000000000000000000000000000000000000000000081526004016105c890612305565b60405180910390fd5b60008686905011610617576040517f08c379a000000000000000000000000000000000000000000000000000000000815260040161060e90612397565b60405180910390fd5b61067484848080601f016020809104026020016040519081016040528093929190818152602001838380828437600081840152601f19601f82011690508083019250505050505050604051806020016040528060008152506114a5565b156106b4576040517f08c379a00000000000000000000000000000000000000000000000000000000081526004016106ab90612429565b60405180910390fd5b60016040518060c00160405280600081526020013373ffffffffffffffffffffffffffffffffffffffff1681526020018973ffffffffffffffffffffffffffffffffffffffff16815260200186868080601f016020809104026020016040519081016040528093929190818152602001838380828437600081840152601f19601f82011690508083019250505050505050815260200184848080601f016020809104026020016040519081016040528093929190818152602001838380828437600081840152601f19601f820116905080830192505050505050508152602001888880806020026020016040519081016040528093929190818152602001838360200280828437600081840152601f19601f8201169050808301925050505050505081525090806001815401808255809150506001900390600052602060002090600602016000909190919091506000820151816000015560208201518160010160006101000a81548173ffffffffffffffffffffffffffffffffffffffff021916908373ffffffffffffffffffffffffffffffffffffffff16021790555060408201518160020160006101000a81548173ffffffffffffffffffffffffffffffffffffffff021916908373ffffffffffffffffffffffffffffffffffffffff16021790555060608201518160030190816108af9190612624565b5060808201518160040190816108c59190612624565b5060a08201518160050190805190602001906108e2929190611955565b5050507f831185aba16d948f9f2ea0aa55a5f9b854c1a5629ef7bbe724055e5630435b5f600180805490506109179190612725565b338989898989898960405161093499989796959493929190612831565b60405180910390a150505050505050565b6001818154811061095957610958612204565b5b906000526020600020906006020160010160009054906101000a900473ffffffffffffffffffffffffffffffffffffffff1673ffffffffffffffffffffffffffffffffffffffff163373ffffffffffffffffffffffffffffffffffffffff16146109f8576040517f08c379a00000000000000000000000000000000000000000000000000000000081526004016109ef9061291f565b60405180910390fd5b600060018281548110610a0e57610a0d612204565b5b90600052602060002090600602016040518060c0016040529081600082015481526020016001820160009054906101000a900473ffffffffffffffffffffffffffffffffffffffff1673ffffffffffffffffffffffffffffffffffffffff1673ffffffffffffffffffffffffffffffffffffffff1681526020016002820160009054906101000a900473ffffffffffffffffffffffffffffffffffffffff1673ffffffffffffffffffffffffffffffffffffffff1673ffffffffffffffffffffffffffffffffffffffff168152602001600382018054610aed90612262565b80601f0160208091040260200160405190810160405280929190818152602001828054610b1990612262565b8015610b665780601f10610b3b57610100808354040283529160200191610b66565b820191906000526020600020905b815481529060010190602001808311610b4957829003601f168201915b50505050508152602001600482018054610b7f90612262565b80601f0160208091040260200160405190810160405280929190818152602001828054610bab90612262565b8015610bf85780601f10610bcd57610100808354040283529160200191610bf8565b820191906000526020600020905b815481529060010190602001808311610bdb57829003601f168201915b5050505050815260200160058201805480602002602001604051908101604052809291908181526020018280548015610c8657602002820191906000526020600020905b8160009054906101000a900473ffffffffffffffffffffffffffffffffffffffff1673ffffffffffffffffffffffffffffffffffffffff1681526020019060010190808311610c3c575b5050505050815250509050610c9a826114cd565b7fcbf523e84d72c729ae117e16e878c9ef49804ad38c3dde45e6f2392b6ea0921181604051610cc99190611d42565b60405180910390a16000816040015173ffffffffffffffffffffffffffffffffffffffff168260000151604051610cff90612970565b60006040518083038185875af1925050503d8060008114610d3c576040519150601f19603f3d011682016040523d82523d6000602084013e610d41565b606091505b5050905080610d85576040517f08c379a0000000000000000000000000000000000000000000000000000000008152600401610d7c906129d1565b60405180910390fd5b505050565b60606001805480602002602001604051908101604052809291908181526020016000905b8282101561104857838290600052602060002090600602016040518060c0016040529081600082015481526020016001820160009054906101000a900473ffffffffffffffffffffffffffffffffffffffff1673ffffffffffffffffffffffffffffffffffffffff1673ffffffffffffffffffffffffffffffffffffffff1681526020016002820160009054906101000a900473ffffffffffffffffffffffffffffffffffffffff1673ffffffffffffffffffffffffffffffffffffffff1673ffffffffffffffffffffffffffffffffffffffff168152602001600382018054610e9790612262565b80601f0160208091040260200160405190810160405280929190818152602001828054610ec390612262565b8015610f105780601f10610ee557610100808354040283529160200191610f10565b820191906000526020600020905b815481529060010190602001808311610ef357829003601f168201915b50505050508152602001600482018054610f2990612262565b80601f0160208091040260200160405190810160405280929190818152602001828054610f5590612262565b8015610fa25780601f10610f7757610100808354040283529160200191610fa2565b820191906000526020600020905b815481529060010190602001808311610f8557829003601f168201915b505050505081526020016005820180548060200260200160405190810160405280929190818152602001828054801561103057602002820191906000526020600020905b8160009054906101000a900473ffffffffffffffffffffffffffffffffffffffff1673ffffffffffffffffffffffffffffffffffffffff1681526020019060010190808311610fe6575b50505050508152505081526020019060010190610dae565b50505050905090565b6111036001828154811061106857611067612204565b5b90600052602060002090600602016005018054806020026020016040519081016040528092919081815260200182805480156110f957602002820191906000526020600020905b8160009054906101000a900473ffffffffffffffffffffffffffffffffffffffff1673ffffffffffffffffffffffffffffffffffffffff16815260200190600101908083116110af575b5050505050611718565b611142576040517f08c379a000000000000000000000000000000000000000000000000000000000815260040161113990612a63565b60405180910390fd5b660aa87bee53800034101561118c576040517f08c379a000000000000000000000000000000000000000000000000000000000815260040161118390612acf565b60405180910390fd5b34600182815481106111a1576111a0612204565b5b906000526020600020906006020160000160008282546111c19190612aef565b925050819055507fa1d2d59e3d6ef1c035937977cfb91f45013a826082d193f07bc4ff7931453d018133346040516111fb93929190612b23565b60405180910390a150565b61120e61128c565b600073ffffffffffffffffffffffffffffffffffffffff168173ffffffffffffffffffffffffffffffffffffffff16036112805760006040517f1e4fbdf70000000000000000000000000000000000000000000000000000000081526004016112779190611d73565b60405180910390fd5b61128981611313565b50565b611294611798565b73ffffffffffffffffffffffffffffffffffffffff166112b261052c565b73ffffffffffffffffffffffffffffffffffffffff1614611311576112d5611798565b6040517f118cdaa70000000000000000000000000000000000000000000000000000000081526004016113089190611d73565b60405180910390fd5b565b60008060009054906101000a900473ffffffffffffffffffffffffffffffffffffffff169050816000806101000a81548173ffffffffffffffffffffffffffffffffffffffff021916908373ffffffffffffffffffffffffffffffffffffffff1602179055508173ffffffffffffffffffffffffffffffffffffffff168173ffffffffffffffffffffffffffffffffffffffff167f8be0079c531659141344cd1fd0a4f28419497f9722a3daafe3b4186f6b6457e060405160405180910390a35050565b6060600060016113e6846117a0565b01905060008167ffffffffffffffff81111561140557611404612449565b5b6040519080825280601f01601f1916602001820160405280156114375781602001600182028036833780820191505090505b509050600082602001820190505b60011561149a578080600190039150507f3031323334353637383961626364656600000000000000000000000000000000600a86061a8153600a858161148e5761148d612b5a565b5b04945060008503611445575b819350505050919050565b6000815183511480156114c5575081805190602001208380519060200120145b905092915050565b60008190505b600180805490506114e49190612725565b81101561166357600180826114f99190612aef565b8154811061150a57611509612204565b5b90600052602060002090600602016001828154811061152c5761152b612204565b5b9060005260206000209060060201600082015481600001556001820160009054906101000a900473ffffffffffffffffffffffffffffffffffffffff168160010160006101000a81548173ffffffffffffffffffffffffffffffffffffffff021916908373ffffffffffffffffffffffffffffffffffffffff1602179055506002820160009054906101000a900473ffffffffffffffffffffffffffffffffffffffff168160020160006101000a81548173ffffffffffffffffffffffffffffffffffffffff021916908373ffffffffffffffffffffffffffffffffffffffff160217905550600382018160030190816116269190612b9f565b506004820181600401908161163b9190612b9f565b5060058201816005019080546116529291906119df565b5090505080806001019150506114d3565b50600180548061167657611675612c87565b5b60019003818190600052602060002090600602016000808201600090556001820160006101000a81549073ffffffffffffffffffffffffffffffffffffffff02191690556002820160006101000a81549073ffffffffffffffffffffffffffffffffffffffff02191690556003820160006116f19190611a31565b6004820160006117019190611a31565b6005820160006117119190611a71565b5050905550565b600080600090505b825181101561178d5782818151811061173c5761173b612204565b5b602002602001015173ffffffffffffffffffffffffffffffffffffffff163373ffffffffffffffffffffffffffffffffffffffff1603611780576001915050611793565b8080600101915050611720565b50600090505b919050565b600033905090565b600080600090507a184f03e93ff9f4daa797ed6e38ed64bf6a1f01000000000000000083106117fe577a184f03e93ff9f4daa797ed6e38ed64bf6a1f01000000000000000083816117f4576117f3612b5a565b5b0492506040810190505b6d04ee2d6d415b85acef8100000000831061183b576d04ee2d6d415b85acef8100000000838161183157611830612b5a565b5b0492506020810190505b662386f26fc10000831061186a57662386f26fc1000083816118605761185f612b5a565b5b0492506010810190505b6305f5e1008310611893576305f5e100838161188957611888612b5a565b5b0492506008810190505b61271083106118b85761271083816118ae576118ad612b5a565b5b0492506004810190505b606483106118db57606483816118d1576118d0612b5a565b5b0492506002810190505b600a83106118ea576001810190505b80915050919050565b6040518060c0016040528060008152602001600073ffffffffffffffffffffffffffffffffffffffff168152602001600073ffffffffffffffffffffffffffffffffffffffff1681526020016060815260200160608152602001606081525090565b8280548282559060005260206000209081019282156119ce579160200282015b828111156119cd5782518260006101000a81548173ffffffffffffffffffffffffffffffffffffffff021916908373ffffffffffffffffffffffffffffffffffffffff16021790555091602001919060010190611975565b5b5090506119db9190611a92565b5090565b828054828255906000526020600020908101928215611a205760005260206000209182015b82811115611a1f578254825591600101919060010190611a04565b5b509050611a2d9190611a92565b5090565b508054611a3d90612262565b6000825580601f10611a4f5750611a6e565b601f016020900490600052602060002090810190611a6d9190611a92565b5b50565b5080546000825590600052602060002090810190611a8f9190611a92565b50565b5b80821115611aab576000816000905550600101611a93565b5090565b600080fd5b600080fd5b6000819050919050565b611acc81611ab9565b8114611ad757600080fd5b50565b600081359050611ae981611ac3565b92915050565b600060208284031215611b0557611b04611aaf565b5b6000611b1384828501611ada565b91505092915050565b611b2581611ab9565b82525050565b600073ffffffffffffffffffffffffffffffffffffffff82169050919050565b6000611b5682611b2b565b9050919050565b611b6681611b4b565b82525050565b600081519050919050565b600082825260208201905092915050565b60005b83811015611ba6578082015181840152602081019050611b8b565b60008484015250505050565b6000601f19601f8301169050919050565b6000611bce82611b6c565b611bd88185611b77565b9350611be8818560208601611b88565b611bf181611bb2565b840191505092915050565b600081519050919050565b600082825260208201905092915050565b6000819050602082019050919050565b6000611c348383611b5d565b60208301905092915050565b6000602082019050919050565b6000611c5882611bfc565b611c628185611c07565b9350611c6d83611c18565b8060005b83811015611c9e578151611c858882611c28565b9750611c9083611c40565b925050600181019050611c71565b5085935050505092915050565b600060c083016000830151611cc36000860182611b1c565b506020830151611cd66020860182611b5d565b506040830151611ce96040860182611b5d565b5060608301518482036060860152611d018282611bc3565b91505060808301518482036080860152611d1b8282611bc3565b91505060a083015184820360a0860152611d358282611c4d565b9150508091505092915050565b60006020820190508181036000830152611d5c8184611cab565b905092915050565b611d6d81611b4b565b82525050565b6000602082019050611d886000830184611d64565b92915050565b611d9781611ab9565b82525050565b6000602082019050611db26000830184611d8e565b92915050565b611dc181611b4b565b8114611dcc57600080fd5b50565b600081359050611dde81611db8565b92915050565b600080fd5b600080fd5b600080fd5b60008083601f840112611e0957611e08611de4565b5b8235905067ffffffffffffffff811115611e2657611e25611de9565b5b602083019150836020820283011115611e4257611e41611dee565b5b9250929050565b60008083601f840112611e5f57611e5e611de4565b5b8235905067ffffffffffffffff811115611e7c57611e7b611de9565b5b602083019150836001820283011115611e9857611e97611dee565b5b9250929050565b60008060008060008060006080888a031215611ebe57611ebd611aaf565b5b6000611ecc8a828b01611dcf565b975050602088013567ffffffffffffffff811115611eed57611eec611ab4565b5b611ef98a828b01611df3565b9650965050604088013567ffffffffffffffff811115611f1c57611f1b611ab4565b5b611f288a828b01611e49565b9450945050606088013567ffffffffffffffff811115611f4b57611f4a611ab4565b5b611f578a828b01611e49565b925092505092959891949750929550565b600081519050919050565b600082825260208201905092915050565b6000819050602082019050919050565b600060c083016000830151611fac6000860182611b1c565b506020830151611fbf6020860182611b5d565b506040830151611fd26040860182611b5d565b5060608301518482036060860152611fea8282611bc3565b915050608083015184820360808601526120048282611bc3565b91505060a083015184820360a086015261201e8282611c4d565b9150508091505092915050565b60006120378383611f94565b905092915050565b6000602082019050919050565b600061205782611f68565b6120618185611f73565b93508360208202850161207385611f84565b8060005b858110156120af5784840389528151612090858261202b565b945061209b8361203f565b925060208a01995050600181019050612077565b50829750879550505050505092915050565b600060208201905081810360008301526120db818461204c565b905092915050565b6000602082840312156120f9576120f8611aaf565b5b600061210784828501611dcf565b91505092915050565b7f416e79207072697a6520706f6f6c20657869737420617420696e646578200000815250565b600081905092915050565b600061214c82611b6c565b6121568185612136565b9350612166818560208601611b88565b80840191505092915050565b600061217d82612110565b601e8201915061218d8284612141565b915081905092915050565b600082825260208201905092915050565b60006121b482611b6c565b6121be8185612198565b93506121ce818560208601611b88565b6121d781611bb2565b840191505092915050565b600060208201905081810360008301526121fc81846121a9565b905092915050565b7f4e487b7100000000000000000000000000000000000000000000000000000000600052603260045260246000fd5b7f4e487b7100000000000000000000000000000000000000000000000000000000600052602260045260246000fd5b6000600282049050600182168061227a57607f821691505b60208210810361228d5761228c612233565b5b50919050565b7f596f752063616e6e6f7420637265617465207072697a6520706f6f6c2077697460008201527f686f757420726563656976657200000000000000000000000000000000000000602082015250565b60006122ef602d83612198565b91506122fa82612293565b604082019050919050565b6000602082019050818103600083015261231e816122e2565b9050919050565b7f596f752063616e6e6f7420637265617465207072697a6520706f6f6c2077697460008201527f686f757420676976657200000000000000000000000000000000000000000000602082015250565b6000612381602a83612198565b915061238c82612325565b604082019050919050565b600060208201905081810360008301526123b081612374565b9050919050565b7f596f752063616e6e6f7420637265617465207072697a6520706f6f6c2077697460008201527f686f7574207469746c6500000000000000000000000000000000000000000000602082015250565b6000612413602a83612198565b915061241e826123b7565b604082019050919050565b6000602082019050818103600083015261244281612406565b9050919050565b7f4e487b7100000000000000000000000000000000000000000000000000000000600052604160045260246000fd5b60008190508160005260206000209050919050565b60006020601f8301049050919050565b600082821b905092915050565b6000600883026124da7fffffffffffffffffffffffffffffffffffffffffffffffffffffffffffffffff8261249d565b6124e4868361249d565b95508019841693508086168417925050509392505050565b6000819050919050565b600061252161251c61251784611ab9565b6124fc565b611ab9565b9050919050565b6000819050919050565b61253b83612506565b61254f61254782612528565b8484546124aa565b825550505050565b600090565b612564612557565b61256f818484612532565b505050565b5b818110156125935761258860008261255c565b600181019050612575565b5050565b601f8211156125d8576125a981612478565b6125b28461248d565b810160208510156125c1578190505b6125d56125cd8561248d565b830182612574565b50505b505050565b600082821c905092915050565b60006125fb600019846008026125dd565b1980831691505092915050565b600061261483836125ea565b9150826002028217905092915050565b61262d82611b6c565b67ffffffffffffffff81111561264657612645612449565b5b6126508254612262565b61265b828285612597565b600060209050601f83116001811461268e576000841561267c578287015190505b6126868582612608565b8655506126ee565b601f19841661269c86612478565b60005b828110156126c45784890151825560018201915060208501945060208101905061269f565b868310156126e157848901516126dd601f8916826125ea565b8355505b6001600288020188555050505b505050505050565b7f4e487b7100000000000000000000000000000000000000000000000000000000600052601160045260246000fd5b600061273082611ab9565b915061273b83611ab9565b9250828203905081811115612753576127526126f6565b5b92915050565b600082825260208201905092915050565b6000819050919050565b60006127836020840184611dcf565b905092915050565b6000602082019050919050565b60006127a48385612759565b93506127af8261276a565b8060005b858110156127e8576127c58284612774565b6127cf8882611c28565b97506127da8361278b565b9250506001810190506127b3565b5085925050509392505050565b82818337600083830152505050565b60006128108385612198565b935061281d8385846127f5565b61282683611bb2565b840190509392505050565b600060c082019050612846600083018c611d8e565b612853602083018b611d64565b612860604083018a611d64565b818103606083015261287381888a612798565b90508181036080830152612888818688612804565b905081810360a083015261289d818486612804565b90509a9950505050505050505050565b7f596f752063616e6e6f7420636c6f7365207072697a6520706f6f6c206966207960008201527f6f7520617265206e6f74206f776e657200000000000000000000000000000000602082015250565b6000612909603083612198565b9150612914826128ad565b604082019050919050565b60006020820190508181036000830152612938816128fc565b9050919050565b600081905092915050565b50565b600061295a60008361293f565b91506129658261294a565b600082019050919050565b600061297b8261294d565b9150819050919050565b7f4661696c656420746f2077697468647261772045746865720000000000000000600082015250565b60006129bb601883612198565b91506129c682612985565b602082019050919050565b600060208201905081810360008301526129ea816129ae565b9050919050565b7f596f752063616e6e6f7420646f6e61746520696620796f7520617265206e6f7460008201527f2067697665720000000000000000000000000000000000000000000000000000602082015250565b6000612a4d602683612198565b9150612a58826129f1565b604082019050919050565b60006020820190508181036000830152612a7c81612a40565b9050919050565b7f446f6e6174696f6e206d696e696d756d20697320302e30303320657468657200600082015250565b6000612ab9601f83612198565b9150612ac482612a83565b602082019050919050565b60006020820190508181036000830152612ae881612aac565b9050919050565b6000612afa82611ab9565b9150612b0583611ab9565b9250828201905080821115612b1d57612b1c6126f6565b5b92915050565b6000606082019050612b386000830186611d8e565b612b456020830185611d64565b612b526040830184611d8e565b949350505050565b7f4e487b7100000000000000000000000000000000000000000000000000000000600052601260045260246000fd5b600081549050612b9881612262565b9050919050565b818103612bad575050612c85565b612bb682612b89565b67ffffffffffffffff811115612bcf57612bce612449565b5b612bd98254612262565b612be4828285612597565b6000601f831160018114612c135760008415612c01578287015490505b612c0b8582612608565b865550612c7e565b601f198416612c2187612478565b9650612c2c86612478565b60005b82811015612c5457848901548255600182019150600185019450602081019050612c2f565b86831015612c715784890154612c6d601f8916826125ea565b8355505b6001600288020188555050505b5050505050505b565b7f4e487b7100000000000000000000000000000000000000000000000000000000600052603160045260246000fdfea26469706673582212202e47b88a84cc8896321e19040e6fe9e71d6bad598c3ed3c5cb6ac7036bd5c12364736f6c63430008180033",
  "linkReferences": {},
  "deployedLinkReferences": {}
}