{
  "_format": "hh-sol-artifact-1",
  "contractName": "CryptoKDO",
  "sourceName": "contracts/CryptoKDO.sol",
  "abi": [
    {
      "inputs": [
        {
          "internalType": "contract IWrappedTokenGatewayV3",
          "name": "wtg",
          "type": "address"
        },
        {
          "internalType": "contract IERC20",
          "name": "erc20",
          "type": "address"
        }
      ],
      "stateMutability": "nonpayable",
      "type": "constructor"
    },
    {
      "inputs": [
        {
          "internalType": "address",
          "name": "owner",
          "type": "address"
        }
      ],
      "name": "OwnableInvalidOwner",
      "type": "error"
    },
    {
      "inputs": [
        {
          "internalType": "address",
          "name": "account",
          "type": "address"
        }
      ],
      "name": "OwnableUnauthorizedAccount",
      "type": "error"
    },
    {
      "anonymous": false,
      "inputs": [
        {
          "indexed": false,
          "internalType": "uint256",
          "name": "id",
          "type": "uint256"
        },
        {
          "indexed": false,
          "internalType": "address",
          "name": "giver",
          "type": "address"
        },
        {
          "indexed": false,
          "internalType": "uint256",
          "name": "amount",
          "type": "uint256"
        }
      ],
      "name": "DonationDone",
      "type": "event"
    },
    {
      "anonymous": false,
      "inputs": [
        {
          "indexed": true,
          "internalType": "address",
          "name": "previousOwner",
          "type": "address"
        },
        {
          "indexed": true,
          "internalType": "address",
          "name": "newOwner",
          "type": "address"
        }
      ],
      "name": "OwnershipTransferred",
      "type": "event"
    },
    {
      "anonymous": false,
      "inputs": [
        {
          "components": [
            {
              "internalType": "uint256",
              "name": "amount",
              "type": "uint256"
            },
            {
              "internalType": "address",
              "name": "owner",
              "type": "address"
            },
            {
              "internalType": "address",
              "name": "receiver",
              "type": "address"
            },
            {
              "internalType": "string",
              "name": "title",
              "type": "string"
            },
            {
              "internalType": "string",
              "name": "description",
              "type": "string"
            },
            {
              "internalType": "address[]",
              "name": "givers",
              "type": "address[]"
            }
          ],
          "indexed": false,
          "internalType": "struct CryptoKDO.PrizePool",
          "name": "prizePool",
          "type": "tuple"
        }
      ],
      "name": "PrizePoolClosed",
      "type": "event"
    },
    {
      "anonymous": false,
      "inputs": [
        {
          "indexed": false,
          "internalType": "uint256",
          "name": "id",
          "type": "uint256"
        },
        {
          "indexed": false,
          "internalType": "address",
          "name": "owner",
          "type": "address"
        },
        {
          "indexed": false,
          "internalType": "address",
          "name": "receiver",
          "type": "address"
        },
        {
          "indexed": false,
          "internalType": "address[]",
          "name": "givers",
          "type": "address[]"
        },
        {
          "indexed": false,
          "internalType": "string",
          "name": "title",
          "type": "string"
        },
        {
          "indexed": false,
          "internalType": "string",
          "name": "description",
          "type": "string"
        }
      ],
      "name": "PrizePoolCreated",
      "type": "event"
    },
    {
      "inputs": [
        {
          "internalType": "uint256",
          "name": "index",
          "type": "uint256"
        }
      ],
      "name": "closePrizePool",
      "outputs": [],
      "stateMutability": "nonpayable",
      "type": "function"
    },
    {
      "inputs": [
        {
          "internalType": "address",
          "name": "receiver",
          "type": "address"
        },
        {
          "internalType": "address[]",
          "name": "givers",
          "type": "address[]"
        },
        {
          "internalType": "string",
          "name": "title",
          "type": "string"
        },
        {
          "internalType": "string",
          "name": "description",
          "type": "string"
        }
      ],
      "name": "createPrizePool",
      "outputs": [],
      "stateMutability": "nonpayable",
      "type": "function"
    },
    {
      "inputs": [
        {
          "internalType": "uint256",
          "name": "index",
          "type": "uint256"
        }
      ],
      "name": "donate",
      "outputs": [],
      "stateMutability": "payable",
      "type": "function"
    },
    {
      "inputs": [],
      "name": "getAllPrizePools",
      "outputs": [
        {
          "components": [
            {
              "internalType": "uint256",
              "name": "amount",
              "type": "uint256"
            },
            {
              "internalType": "address",
              "name": "owner",
              "type": "address"
            },
            {
              "internalType": "address",
              "name": "receiver",
              "type": "address"
            },
            {
              "internalType": "string",
              "name": "title",
              "type": "string"
            },
            {
              "internalType": "string",
              "name": "description",
              "type": "string"
            },
            {
              "internalType": "address[]",
              "name": "givers",
              "type": "address[]"
            }
          ],
          "internalType": "struct CryptoKDO.PrizePool[]",
          "name": "",
          "type": "tuple[]"
        }
      ],
      "stateMutability": "view",
      "type": "function"
    },
    {
      "inputs": [
        {
          "internalType": "uint256",
          "name": "index",
          "type": "uint256"
        }
      ],
      "name": "getPrizePool",
      "outputs": [
        {
          "components": [
            {
              "internalType": "uint256",
              "name": "amount",
              "type": "uint256"
            },
            {
              "internalType": "address",
              "name": "owner",
              "type": "address"
            },
            {
              "internalType": "address",
              "name": "receiver",
              "type": "address"
            },
            {
              "internalType": "string",
              "name": "title",
              "type": "string"
            },
            {
              "internalType": "string",
              "name": "description",
              "type": "string"
            },
            {
              "internalType": "address[]",
              "name": "givers",
              "type": "address[]"
            }
          ],
          "internalType": "struct CryptoKDO.PrizePool",
          "name": "",
          "type": "tuple"
        }
      ],
      "stateMutability": "view",
      "type": "function"
    },
    {
      "inputs": [],
      "name": "getTotalPrizePools",
      "outputs": [
        {
          "internalType": "uint256",
          "name": "",
          "type": "uint256"
        }
      ],
      "stateMutability": "view",
      "type": "function"
    },
    {
      "inputs": [],
      "name": "getTotalSupply",
      "outputs": [
        {
          "internalType": "uint256",
          "name": "",
          "type": "uint256"
        }
      ],
      "stateMutability": "view",
      "type": "function"
    },
    {
      "inputs": [],
      "name": "owner",
      "outputs": [
        {
          "internalType": "address",
          "name": "",
          "type": "address"
        }
      ],
      "stateMutability": "view",
      "type": "function"
    },
    {
      "inputs": [],
      "name": "renounceOwnership",
      "outputs": [],
      "stateMutability": "nonpayable",
      "type": "function"
    },
    {
      "inputs": [
        {
          "internalType": "address",
          "name": "newOwner",
          "type": "address"
        }
      ],
      "name": "transferOwnership",
      "outputs": [],
      "stateMutability": "nonpayable",
      "type": "function"
    },
    {
      "stateMutability": "payable",
      "type": "receive"
    }
  ],
  "bytecode": "0x60a06040523480156200001157600080fd5b5060405162004517380380620045178339818101604052810190620000379190620002ca565b33600073ffffffffffffffffffffffffffffffffffffffff168173ffffffffffffffffffffffffffffffffffffffff1603620000ad5760006040517f1e4fbdf7000000000000000000000000000000000000000000000000000000008152600401620000a4919062000322565b60405180910390fd5b620000be816200013560201b60201c565b508181604051620000cf90620001f9565b620000dc929190620003cf565b604051809103906000f080158015620000f9573d6000803e3d6000fd5b5073ffffffffffffffffffffffffffffffffffffffff1660808173ffffffffffffffffffffffffffffffffffffffff16815250505050620003fc565b60008060009054906101000a900473ffffffffffffffffffffffffffffffffffffffff169050816000806101000a81548173ffffffffffffffffffffffffffffffffffffffff021916908373ffffffffffffffffffffffffffffffffffffffff1602179055508173ffffffffffffffffffffffffffffffffffffffff168173ffffffffffffffffffffffffffffffffffffffff167f8be0079c531659141344cd1fd0a4f28419497f9722a3daafe3b4186f6b6457e060405160405180910390a35050565b610f05806200361283390190565b600080fd5b600073ffffffffffffffffffffffffffffffffffffffff82169050919050565b600062000239826200020c565b9050919050565b60006200024d826200022c565b9050919050565b6200025f8162000240565b81146200026b57600080fd5b50565b6000815190506200027f8162000254565b92915050565b600062000292826200022c565b9050919050565b620002a48162000285565b8114620002b057600080fd5b50565b600081519050620002c48162000299565b92915050565b60008060408385031215620002e457620002e362000207565b5b6000620002f4858286016200026e565b92505060206200030785828601620002b3565b9150509250929050565b6200031c816200022c565b82525050565b600060208201905062000339600083018462000311565b92915050565b6000819050919050565b60006200036a620003646200035e846200020c565b6200033f565b6200020c565b9050919050565b60006200037e8262000349565b9050919050565b6000620003928262000371565b9050919050565b620003a48162000385565b82525050565b6000620003b78262000371565b9050919050565b620003c981620003aa565b82525050565b6000604082019050620003e6600083018562000399565b620003f56020830184620003be565b9392505050565b6080516131ec62000426600039600081816109b301528181610e8b015261158801526131ec6000f3fe6080604052600436106100955760003560e01c8063c4e41b2211610059578063c4e41b2214610174578063d1b269741461019f578063ee5ae572146101c8578063f14faf6f146101f3578063f2fde38b1461020f5761009c565b8063715018a6146100a15780637822be4a146100b85780638da5cb5b146100f5578063b2a28fc014610120578063b74231341461014b5761009c565b3661009c57005b600080fd5b3480156100ad57600080fd5b506100b6610238565b005b3480156100c457600080fd5b506100df60048036038101906100da9190611f3a565b61024c565b6040516100ec919061218d565b60405180910390f35b34801561010157600080fd5b5061010a610595565b60405161011791906121be565b60405180910390f35b34801561012c57600080fd5b506101356105be565b60405161014291906121e8565b60405180910390f35b34801561015757600080fd5b50610172600480360381019061016d91906122ea565b6105cb565b005b34801561018057600080fd5b506101896109af565b60405161019691906121e8565b60405180910390f35b3480156101ab57600080fd5b506101c660048036038101906101c19190611f3a565b610a45565b005b3480156101d457600080fd5b506101dd610fd2565b6040516101ea919061250c565b60405180910390f35b61020d60048036038101906102089190611f3a565b611320565b005b34801561021b57600080fd5b506102366004803603810190610231919061252e565b61160b565b005b610240611691565b61024a6000611718565b565b610254611d3e565b6002805490508210610265836117dc565b60405160200161027591906125bd565b604051602081830303815290604052906102c5576040517f08c379a00000000000000000000000000000000000000000000000000000000081526004016102bc919061262d565b60405180910390fd5b506000600283815481106102dc576102db61264f565b5b90600052602060002090600602016040518060c0016040529081600082015481526020016001820160009054906101000a900473ffffffffffffffffffffffffffffffffffffffff1673ffffffffffffffffffffffffffffffffffffffff1673ffffffffffffffffffffffffffffffffffffffff1681526020016002820160009054906101000a900473ffffffffffffffffffffffffffffffffffffffff1673ffffffffffffffffffffffffffffffffffffffff1673ffffffffffffffffffffffffffffffffffffffff1681526020016003820180546103bb906126ad565b80601f01602080910402602001604051908101604052809291908181526020018280546103e7906126ad565b80156104345780601f1061040957610100808354040283529160200191610434565b820191906000526020600020905b81548152906001019060200180831161041757829003601f168201915b5050505050815260200160048201805461044d906126ad565b80601f0160208091040260200160405190810160405280929190818152602001828054610479906126ad565b80156104c65780601f1061049b576101008083540402835291602001916104c6565b820191906000526020600020905b8154815290600101906020018083116104a957829003601f168201915b505050505081526020016005820180548060200260200160405190810160405280929190818152602001828054801561055457602002820191906000526020600020905b8160009054906101000a900473ffffffffffffffffffffffffffffffffffffffff1673ffffffffffffffffffffffffffffffffffffffff168152602001906001019080831161050a575b5050505050815250509050610574816000015161056f6109af565b6118aa565b81600001818151610585919061270d565b9150818152505080915050919050565b60008060009054906101000a900473ffffffffffffffffffffffffffffffffffffffff16905090565b6000600280549050905090565b600073ffffffffffffffffffffffffffffffffffffffff168773ffffffffffffffffffffffffffffffffffffffff160361063a576040517f08c379a0000000000000000000000000000000000000000000000000000000008152600401610631906127b3565b60405180910390fd5b60008686905011610680576040517f08c379a000000000000000000000000000000000000000000000000000000000815260040161067790612845565b60405180910390fd5b6106dd84848080601f016020809104026020016040519081016040528093929190818152602001838380828437600081840152601f19601f82011690508083019250505050505050604051806020016040528060008152506118ee565b1561071d576040517f08c379a0000000000000000000000000000000000000000000000000000000008152600401610714906128d7565b60405180910390fd5b60026040518060c00160405280600081526020013373ffffffffffffffffffffffffffffffffffffffff1681526020018973ffffffffffffffffffffffffffffffffffffffff16815260200186868080601f016020809104026020016040519081016040528093929190818152602001838380828437600081840152601f19601f82011690508083019250505050505050815260200184848080601f016020809104026020016040519081016040528093929190818152602001838380828437600081840152601f19601f820116905080830192505050505050508152602001888880806020026020016040519081016040528093929190818152602001838360200280828437600081840152601f19601f8201169050808301925050505050505081525090806001815401808255809150506001900390600052602060002090600602016000909190919091506000820151816000015560208201518160010160006101000a81548173ffffffffffffffffffffffffffffffffffffffff021916908373ffffffffffffffffffffffffffffffffffffffff16021790555060408201518160020160006101000a81548173ffffffffffffffffffffffffffffffffffffffff021916908373ffffffffffffffffffffffffffffffffffffffff16021790555060608201518160030190816109189190612ad2565b50608082015181600401908161092e9190612ad2565b5060a082015181600501908051906020019061094b929190611da0565b5050507f831185aba16d948f9f2ea0aa55a5f9b854c1a5629ef7bbe724055e5630435b5f60016002805490506109819190612ba4565b338989898989898960405161099e99989796959493929190612cb0565b60405180910390a150505050505050565b60007f000000000000000000000000000000000000000000000000000000000000000073ffffffffffffffffffffffffffffffffffffffff16636c9c2faf6040518163ffffffff1660e01b8152600401602060405180830381865afa158015610a1c573d6000803e3d6000fd5b505050506040513d601f19601f82011682018060405250810190610a409190612d41565b905090565b6000610a4f6109af565b905060005b600280549050811015610ad857610a9060028281548110610a7857610a7761264f565b5b906000526020600020906006020160000154836118aa565b60028281548110610aa457610aa361264f565b5b90600052602060002090600602016000016000828254610ac4919061270d565b925050819055508080600101915050610a54565b508060018190555060028281548110610af457610af361264f565b5b906000526020600020906006020160010160009054906101000a900473ffffffffffffffffffffffffffffffffffffffff1673ffffffffffffffffffffffffffffffffffffffff163373ffffffffffffffffffffffffffffffffffffffff1614610b93576040517f08c379a0000000000000000000000000000000000000000000000000000000008152600401610b8a90612de0565b60405180910390fd5b600060028381548110610ba957610ba861264f565b5b90600052602060002090600602016040518060c0016040529081600082015481526020016001820160009054906101000a900473ffffffffffffffffffffffffffffffffffffffff1673ffffffffffffffffffffffffffffffffffffffff1673ffffffffffffffffffffffffffffffffffffffff1681526020016002820160009054906101000a900473ffffffffffffffffffffffffffffffffffffffff1673ffffffffffffffffffffffffffffffffffffffff1673ffffffffffffffffffffffffffffffffffffffff168152602001600382018054610c88906126ad565b80601f0160208091040260200160405190810160405280929190818152602001828054610cb4906126ad565b8015610d015780601f10610cd657610100808354040283529160200191610d01565b820191906000526020600020905b815481529060010190602001808311610ce457829003601f168201915b50505050508152602001600482018054610d1a906126ad565b80601f0160208091040260200160405190810160405280929190818152602001828054610d46906126ad565b8015610d935780601f10610d6857610100808354040283529160200191610d93565b820191906000526020600020905b815481529060010190602001808311610d7657829003601f168201915b5050505050815260200160058201805480602002602001604051908101604052809291908181526020018280548015610e2157602002820191906000526020600020905b8160009054906101000a900473ffffffffffffffffffffffffffffffffffffffff1673ffffffffffffffffffffffffffffffffffffffff1681526020019060010190808311610dd7575b5050505050815250509050610e3583611916565b806000015160016000828254610e4b9190612ba4565b925050819055507fcbf523e84d72c729ae117e16e878c9ef49804ad38c3dde45e6f2392b6ea0921181604051610e81919061218d565b60405180910390a17f000000000000000000000000000000000000000000000000000000000000000073ffffffffffffffffffffffffffffffffffffffff16632e1a7d4d82600001516040518263ffffffff1660e01b8152600401610ee691906121e8565b600060405180830381600087803b158015610f0057600080fd5b505af1158015610f14573d6000803e3d6000fd5b505050506000816040015173ffffffffffffffffffffffffffffffffffffffff168260000151604051610f4690612e31565b60006040518083038185875af1925050503d8060008114610f83576040519150601f19603f3d011682016040523d82523d6000602084013e610f88565b606091505b5050905080610fcc576040517f08c379a0000000000000000000000000000000000000000000000000000000008152600401610fc390612e92565b60405180910390fd5b50505050565b606060006002805480602002602001604051908101604052809291908181526020016000905b8282101561129257838290600052602060002090600602016040518060c0016040529081600082015481526020016001820160009054906101000a900473ffffffffffffffffffffffffffffffffffffffff1673ffffffffffffffffffffffffffffffffffffffff1673ffffffffffffffffffffffffffffffffffffffff1681526020016002820160009054906101000a900473ffffffffffffffffffffffffffffffffffffffff1673ffffffffffffffffffffffffffffffffffffffff1673ffffffffffffffffffffffffffffffffffffffff1681526020016003820180546110e1906126ad565b80601f016020809104026020016040519081016040528092919081815260200182805461110d906126ad565b801561115a5780601f1061112f5761010080835404028352916020019161115a565b820191906000526020600020905b81548152906001019060200180831161113d57829003601f168201915b50505050508152602001600482018054611173906126ad565b80601f016020809104026020016040519081016040528092919081815260200182805461119f906126ad565b80156111ec5780601f106111c1576101008083540402835291602001916111ec565b820191906000526020600020905b8154815290600101906020018083116111cf57829003601f168201915b505050505081526020016005820180548060200260200160405190810160405280929190818152602001828054801561127a57602002820191906000526020600020905b8160009054906101000a900473ffffffffffffffffffffffffffffffffffffffff1673ffffffffffffffffffffffffffffffffffffffff1681526020019060010190808311611230575b50505050508152505081526020019060010190610ff8565b50505050905060006112a26109af565b905060005b8251811015611317576112d88382815181106112c6576112c561264f565b5b602002602001015160000151836118aa565b8382815181106112eb576112ea61264f565b5b6020026020010151600001818151611303919061270d565b9150818152505080806001019150506112a7565b50819250505090565b600061132a6109af565b905060005b6002805490508110156113b35761136b600282815481106113535761135261264f565b5b906000526020600020906006020160000154836118aa565b6002828154811061137f5761137e61264f565b5b9060005260206000209060060201600001600082825461139f919061270d565b92505081905550808060010191505061132f565b508060018190555061146d600283815481106113d2576113d161264f565b5b906000526020600020906006020160050180548060200260200160405190810160405280929190818152602001828054801561146357602002820191906000526020600020905b8160009054906101000a900473ffffffffffffffffffffffffffffffffffffffff1673ffffffffffffffffffffffffffffffffffffffff1681526020019060010190808311611419575b5050505050611b63565b6114ac576040517f08c379a00000000000000000000000000000000000000000000000000000000081526004016114a390612f24565b60405180910390fd5b660aa87bee5380003410156114f6576040517f08c379a00000000000000000000000000000000000000000000000000000000081526004016114ed90612f90565b60405180910390fd5b346002838154811061150b5761150a61264f565b5b9060005260206000209060060201600001600082825461152b919061270d565b925050819055503460016000828254611544919061270d565b925050819055507fa1d2d59e3d6ef1c035937977cfb91f45013a826082d193f07bc4ff7931453d0182333460405161157e93929190612fb0565b60405180910390a17f000000000000000000000000000000000000000000000000000000000000000073ffffffffffffffffffffffffffffffffffffffff1663d0e30db0346040518263ffffffff1660e01b81526004016000604051808303818588803b1580156115ee57600080fd5b505af1158015611602573d6000803e3d6000fd5b50505050505050565b611613611691565b600073ffffffffffffffffffffffffffffffffffffffff168173ffffffffffffffffffffffffffffffffffffffff16036116855760006040517f1e4fbdf700000000000000000000000000000000000000000000000000000000815260040161167c91906121be565b60405180910390fd5b61168e81611718565b50565b611699611be3565b73ffffffffffffffffffffffffffffffffffffffff166116b7610595565b73ffffffffffffffffffffffffffffffffffffffff1614611716576116da611be3565b6040517f118cdaa700000000000000000000000000000000000000000000000000000000815260040161170d91906121be565b60405180910390fd5b565b60008060009054906101000a900473ffffffffffffffffffffffffffffffffffffffff169050816000806101000a81548173ffffffffffffffffffffffffffffffffffffffff021916908373ffffffffffffffffffffffffffffffffffffffff1602179055508173ffffffffffffffffffffffffffffffffffffffff168173ffffffffffffffffffffffffffffffffffffffff167f8be0079c531659141344cd1fd0a4f28419497f9722a3daafe3b4186f6b6457e060405160405180910390a35050565b6060600060016117eb84611beb565b01905060008167ffffffffffffffff81111561180a576118096128f7565b5b6040519080825280601f01601f19166020018201604052801561183c5781602001600182028036833780820191505090505b509050600082602001820190505b60011561189f578080600190039150507f3031323334353637383961626364656600000000000000000000000000000000600a86061a8153600a858161189357611892612fe7565b5b0494506000850361184a575b819350505050919050565b60008060015411156118e35760015483600154846118c89190612ba4565b6118d29190613016565b6118dc9190613058565b90506118e8565b600090505b92915050565b60008151835114801561190e575081805190602001208380519060200120145b905092915050565b60008190505b600160028054905061192e9190612ba4565b811015611aae576002600182611944919061270d565b815481106119555761195461264f565b5b9060005260206000209060060201600282815481106119775761197661264f565b5b9060005260206000209060060201600082015481600001556001820160009054906101000a900473ffffffffffffffffffffffffffffffffffffffff168160010160006101000a81548173ffffffffffffffffffffffffffffffffffffffff021916908373ffffffffffffffffffffffffffffffffffffffff1602179055506002820160009054906101000a900473ffffffffffffffffffffffffffffffffffffffff168160020160006101000a81548173ffffffffffffffffffffffffffffffffffffffff021916908373ffffffffffffffffffffffffffffffffffffffff16021790555060038201816003019081611a71919061309f565b5060048201816004019081611a86919061309f565b506005820181600501908054611a9d929190611e2a565b50905050808060010191505061191c565b506002805480611ac157611ac0613187565b5b60019003818190600052602060002090600602016000808201600090556001820160006101000a81549073ffffffffffffffffffffffffffffffffffffffff02191690556002820160006101000a81549073ffffffffffffffffffffffffffffffffffffffff0219169055600382016000611b3c9190611e7c565b600482016000611b4c9190611e7c565b600582016000611b5c9190611ebc565b5050905550565b600080600090505b8251811015611bd857828181518110611b8757611b8661264f565b5b602002602001015173ffffffffffffffffffffffffffffffffffffffff163373ffffffffffffffffffffffffffffffffffffffff1603611bcb576001915050611bde565b8080600101915050611b6b565b50600090505b919050565b600033905090565b600080600090507a184f03e93ff9f4daa797ed6e38ed64bf6a1f0100000000000000008310611c49577a184f03e93ff9f4daa797ed6e38ed64bf6a1f0100000000000000008381611c3f57611c3e612fe7565b5b0492506040810190505b6d04ee2d6d415b85acef81000000008310611c86576d04ee2d6d415b85acef81000000008381611c7c57611c7b612fe7565b5b0492506020810190505b662386f26fc100008310611cb557662386f26fc100008381611cab57611caa612fe7565b5b0492506010810190505b6305f5e1008310611cde576305f5e1008381611cd457611cd3612fe7565b5b0492506008810190505b6127108310611d03576127108381611cf957611cf8612fe7565b5b0492506004810190505b60648310611d265760648381611d1c57611d1b612fe7565b5b0492506002810190505b600a8310611d35576001810190505b80915050919050565b6040518060c0016040528060008152602001600073ffffffffffffffffffffffffffffffffffffffff168152602001600073ffffffffffffffffffffffffffffffffffffffff1681526020016060815260200160608152602001606081525090565b828054828255906000526020600020908101928215611e19579160200282015b82811115611e185782518260006101000a81548173ffffffffffffffffffffffffffffffffffffffff021916908373ffffffffffffffffffffffffffffffffffffffff16021790555091602001919060010190611dc0565b5b509050611e269190611edd565b5090565b828054828255906000526020600020908101928215611e6b5760005260206000209182015b82811115611e6a578254825591600101919060010190611e4f565b5b509050611e789190611edd565b5090565b508054611e88906126ad565b6000825580601f10611e9a5750611eb9565b601f016020900490600052602060002090810190611eb89190611edd565b5b50565b5080546000825590600052602060002090810190611eda9190611edd565b50565b5b80821115611ef6576000816000905550600101611ede565b5090565b600080fd5b600080fd5b6000819050919050565b611f1781611f04565b8114611f2257600080fd5b50565b600081359050611f3481611f0e565b92915050565b600060208284031215611f5057611f4f611efa565b5b6000611f5e84828501611f25565b91505092915050565b611f7081611f04565b82525050565b600073ffffffffffffffffffffffffffffffffffffffff82169050919050565b6000611fa182611f76565b9050919050565b611fb181611f96565b82525050565b600081519050919050565b600082825260208201905092915050565b60005b83811015611ff1578082015181840152602081019050611fd6565b60008484015250505050565b6000601f19601f8301169050919050565b600061201982611fb7565b6120238185611fc2565b9350612033818560208601611fd3565b61203c81611ffd565b840191505092915050565b600081519050919050565b600082825260208201905092915050565b6000819050602082019050919050565b600061207f8383611fa8565b60208301905092915050565b6000602082019050919050565b60006120a382612047565b6120ad8185612052565b93506120b883612063565b8060005b838110156120e95781516120d08882612073565b97506120db8361208b565b9250506001810190506120bc565b5085935050505092915050565b600060c08301600083015161210e6000860182611f67565b5060208301516121216020860182611fa8565b5060408301516121346040860182611fa8565b506060830151848203606086015261214c828261200e565b91505060808301518482036080860152612166828261200e565b91505060a083015184820360a08601526121808282612098565b9150508091505092915050565b600060208201905081810360008301526121a781846120f6565b905092915050565b6121b881611f96565b82525050565b60006020820190506121d360008301846121af565b92915050565b6121e281611f04565b82525050565b60006020820190506121fd60008301846121d9565b92915050565b61220c81611f96565b811461221757600080fd5b50565b60008135905061222981612203565b92915050565b600080fd5b600080fd5b600080fd5b60008083601f8401126122545761225361222f565b5b8235905067ffffffffffffffff81111561227157612270612234565b5b60208301915083602082028301111561228d5761228c612239565b5b9250929050565b60008083601f8401126122aa576122a961222f565b5b8235905067ffffffffffffffff8111156122c7576122c6612234565b5b6020830191508360018202830111156122e3576122e2612239565b5b9250929050565b60008060008060008060006080888a03121561230957612308611efa565b5b60006123178a828b0161221a565b975050602088013567ffffffffffffffff81111561233857612337611eff565b5b6123448a828b0161223e565b9650965050604088013567ffffffffffffffff81111561236757612366611eff565b5b6123738a828b01612294565b9450945050606088013567ffffffffffffffff81111561239657612395611eff565b5b6123a28a828b01612294565b925092505092959891949750929550565b600081519050919050565b600082825260208201905092915050565b6000819050602082019050919050565b600060c0830160008301516123f76000860182611f67565b50602083015161240a6020860182611fa8565b50604083015161241d6040860182611fa8565b5060608301518482036060860152612435828261200e565b9150506080830151848203608086015261244f828261200e565b91505060a083015184820360a08601526124698282612098565b9150508091505092915050565b600061248283836123df565b905092915050565b6000602082019050919050565b60006124a2826123b3565b6124ac81856123be565b9350836020820285016124be856123cf565b8060005b858110156124fa57848403895281516124db8582612476565b94506124e68361248a565b925060208a019950506001810190506124c2565b50829750879550505050505092915050565b600060208201905081810360008301526125268184612497565b905092915050565b60006020828403121561254457612543611efa565b5b60006125528482850161221a565b91505092915050565b7f416e79207072697a6520706f6f6c20657869737420617420696e646578200000815250565b600081905092915050565b600061259782611fb7565b6125a18185612581565b93506125b1818560208601611fd3565b80840191505092915050565b60006125c88261255b565b601e820191506125d8828461258c565b915081905092915050565b600082825260208201905092915050565b60006125ff82611fb7565b61260981856125e3565b9350612619818560208601611fd3565b61262281611ffd565b840191505092915050565b6000602082019050818103600083015261264781846125f4565b905092915050565b7f4e487b7100000000000000000000000000000000000000000000000000000000600052603260045260246000fd5b7f4e487b7100000000000000000000000000000000000000000000000000000000600052602260045260246000fd5b600060028204905060018216806126c557607f821691505b6020821081036126d8576126d761267e565b5b50919050565b7f4e487b7100000000000000000000000000000000000000000000000000000000600052601160045260246000fd5b600061271882611f04565b915061272383611f04565b925082820190508082111561273b5761273a6126de565b5b92915050565b7f596f752063616e6e6f7420637265617465207072697a6520706f6f6c2077697460008201527f686f757420726563656976657200000000000000000000000000000000000000602082015250565b600061279d602d836125e3565b91506127a882612741565b604082019050919050565b600060208201905081810360008301526127cc81612790565b9050919050565b7f596f752063616e6e6f7420637265617465207072697a6520706f6f6c2077697460008201527f686f757420676976657200000000000000000000000000000000000000000000602082015250565b600061282f602a836125e3565b915061283a826127d3565b604082019050919050565b6000602082019050818103600083015261285e81612822565b9050919050565b7f596f752063616e6e6f7420637265617465207072697a6520706f6f6c2077697460008201527f686f7574207469746c6500000000000000000000000000000000000000000000602082015250565b60006128c1602a836125e3565b91506128cc82612865565b604082019050919050565b600060208201905081810360008301526128f0816128b4565b9050919050565b7f4e487b7100000000000000000000000000000000000000000000000000000000600052604160045260246000fd5b60008190508160005260206000209050919050565b60006020601f8301049050919050565b600082821b905092915050565b6000600883026129887fffffffffffffffffffffffffffffffffffffffffffffffffffffffffffffffff8261294b565b612992868361294b565b95508019841693508086168417925050509392505050565b6000819050919050565b60006129cf6129ca6129c584611f04565b6129aa565b611f04565b9050919050565b6000819050919050565b6129e9836129b4565b6129fd6129f5826129d6565b848454612958565b825550505050565b600090565b612a12612a05565b612a1d8184846129e0565b505050565b5b81811015612a4157612a36600082612a0a565b600181019050612a23565b5050565b601f821115612a8657612a5781612926565b612a608461293b565b81016020851015612a6f578190505b612a83612a7b8561293b565b830182612a22565b50505b505050565b600082821c905092915050565b6000612aa960001984600802612a8b565b1980831691505092915050565b6000612ac28383612a98565b9150826002028217905092915050565b612adb82611fb7565b67ffffffffffffffff811115612af457612af36128f7565b5b612afe82546126ad565b612b09828285612a45565b600060209050601f831160018114612b3c5760008415612b2a578287015190505b612b348582612ab6565b865550612b9c565b601f198416612b4a86612926565b60005b82811015612b7257848901518255600182019150602085019450602081019050612b4d565b86831015612b8f5784890151612b8b601f891682612a98565b8355505b6001600288020188555050505b505050505050565b6000612baf82611f04565b9150612bba83611f04565b9250828203905081811115612bd257612bd16126de565b5b92915050565b600082825260208201905092915050565b6000819050919050565b6000612c02602084018461221a565b905092915050565b6000602082019050919050565b6000612c238385612bd8565b9350612c2e82612be9565b8060005b85811015612c6757612c448284612bf3565b612c4e8882612073565b9750612c5983612c0a565b925050600181019050612c32565b5085925050509392505050565b82818337600083830152505050565b6000612c8f83856125e3565b9350612c9c838584612c74565b612ca583611ffd565b840190509392505050565b600060c082019050612cc5600083018c6121d9565b612cd2602083018b6121af565b612cdf604083018a6121af565b8181036060830152612cf281888a612c17565b90508181036080830152612d07818688612c83565b905081810360a0830152612d1c818486612c83565b90509a9950505050505050505050565b600081519050612d3b81611f0e565b92915050565b600060208284031215612d5757612d56611efa565b5b6000612d6584828501612d2c565b91505092915050565b7f596f752063616e6e6f7420636c6f7365207072697a6520706f6f6c206966207960008201527f6f7520617265206e6f74206f776e657200000000000000000000000000000000602082015250565b6000612dca6030836125e3565b9150612dd582612d6e565b604082019050919050565b60006020820190508181036000830152612df981612dbd565b9050919050565b600081905092915050565b50565b6000612e1b600083612e00565b9150612e2682612e0b565b600082019050919050565b6000612e3c82612e0e565b9150819050919050565b7f4661696c656420746f2077697468647261772045746865720000000000000000600082015250565b6000612e7c6018836125e3565b9150612e8782612e46565b602082019050919050565b60006020820190508181036000830152612eab81612e6f565b9050919050565b7f596f752063616e6e6f7420646f6e61746520696620796f7520617265206e6f7460008201527f2067697665720000000000000000000000000000000000000000000000000000602082015250565b6000612f0e6026836125e3565b9150612f1982612eb2565b604082019050919050565b60006020820190508181036000830152612f3d81612f01565b9050919050565b7f446f6e6174696f6e206d696e696d756d20697320302e30303320657468657200600082015250565b6000612f7a601f836125e3565b9150612f8582612f44565b602082019050919050565b60006020820190508181036000830152612fa981612f6d565b9050919050565b6000606082019050612fc560008301866121d9565b612fd260208301856121af565b612fdf60408301846121d9565b949350505050565b7f4e487b7100000000000000000000000000000000000000000000000000000000600052601260045260246000fd5b600061302182611f04565b915061302c83611f04565b925082820261303a81611f04565b91508282048414831517613051576130506126de565b5b5092915050565b600061306382611f04565b915061306e83611f04565b92508261307e5761307d612fe7565b5b828204905092915050565b600081549050613098816126ad565b9050919050565b8181036130ad575050613185565b6130b682613089565b67ffffffffffffffff8111156130cf576130ce6128f7565b5b6130d982546126ad565b6130e4828285612a45565b6000601f8311600181146131135760008415613101578287015490505b61310b8582612ab6565b86555061317e565b601f19841661312187612926565b965061312c86612926565b60005b828110156131545784890154825560018201915060018501945060208101905061312f565b86831015613171578489015461316d601f891682612a98565b8355505b6001600288020188555050505b5050505050505b565b7f4e487b7100000000000000000000000000000000000000000000000000000000600052603160045260246000fdfea264697066735822122096c4768ee5bfc6a12a2bf91436ed8570cd9aea548de67132aa38effc71de0ef464736f6c6343000818003360c06040523480156200001157600080fd5b5060405162000f0538038062000f058339818101604052810190620000379190620002b6565b33600073ffffffffffffffffffffffffffffffffffffffff168173ffffffffffffffffffffffffffffffffffffffff1603620000ad5760006040517f1e4fbdf7000000000000000000000000000000000000000000000000000000008152600401620000a491906200030e565b60405180910390fd5b620000be816200012f60201b60201c565b508173ffffffffffffffffffffffffffffffffffffffff1660808173ffffffffffffffffffffffffffffffffffffffff16815250508073ffffffffffffffffffffffffffffffffffffffff1660a08173ffffffffffffffffffffffffffffffffffffffff168152505050506200032b565b60008060009054906101000a900473ffffffffffffffffffffffffffffffffffffffff169050816000806101000a81548173ffffffffffffffffffffffffffffffffffffffff021916908373ffffffffffffffffffffffffffffffffffffffff1602179055508173ffffffffffffffffffffffffffffffffffffffff168173ffffffffffffffffffffffffffffffffffffffff167f8be0079c531659141344cd1fd0a4f28419497f9722a3daafe3b4186f6b6457e060405160405180910390a35050565b600080fd5b600073ffffffffffffffffffffffffffffffffffffffff82169050919050565b60006200022582620001f8565b9050919050565b6000620002398262000218565b9050919050565b6200024b816200022c565b81146200025757600080fd5b50565b6000815190506200026b8162000240565b92915050565b60006200027e8262000218565b9050919050565b620002908162000271565b81146200029c57600080fd5b50565b600081519050620002b08162000285565b92915050565b60008060408385031215620002d057620002cf620001f3565b5b6000620002e0858286016200025a565b9250506020620002f3858286016200029f565b9150509250929050565b620003088162000218565b82525050565b6000602082019050620003256000830184620002fd565b92915050565b60805160a051610b9f620003666000396000818161016f01526103c90152600081816101ab0152818161026c01526104e40152610b9f6000f3fe6080604052600436106100595760003560e01c80632e1a7d4d146100655780636c9c2faf1461008e578063715018a6146100b95780638da5cb5b146100d0578063d0e30db0146100fb578063f2fde38b1461010557610060565b3661006057005b600080fd5b34801561007157600080fd5b5061008c6004803603810190610087919061079d565b61012e565b005b34801561009a57600080fd5b506100a36103bd565b6040516100b091906107d9565b60405180910390f35b3480156100c557600080fd5b506100ce610466565b005b3480156100dc57600080fd5b506100e561047a565b6040516100f29190610835565b60405180910390f35b6101036104a3565b005b34801561011157600080fd5b5061012c6004803603810190610127919061087c565b610589565b005b61013661060f565b7f69c576a2a079081c42f3d736400cd8417d416e63460fe078921cdf3617d319c58160405161016591906107d9565b60405180910390a17f000000000000000000000000000000000000000000000000000000000000000073ffffffffffffffffffffffffffffffffffffffff1663095ea7b37f0000000000000000000000000000000000000000000000000000000000000000836040518363ffffffff1660e01b81526004016101e89291906108a9565b6020604051808303816000875af1158015610207573d6000803e3d6000fd5b505050506040513d601f19601f8201168201806040525081019061022b919061090a565b61026a576040517f08c379a000000000000000000000000000000000000000000000000000000000815260040161026190610994565b60405180910390fd5b7f000000000000000000000000000000000000000000000000000000000000000073ffffffffffffffffffffffffffffffffffffffff166380500d20736ae43d3271ff6888e7fc43fd7321a503ff73895183306040518463ffffffff1660e01b81526004016102db939291906109b4565b600060405180830381600087803b1580156102f557600080fd5b505af1158015610309573d6000803e3d6000fd5b5050505060003373ffffffffffffffffffffffffffffffffffffffff164760405161033390610a1c565b60006040518083038185875af1925050503d8060008114610370576040519150601f19603f3d011682016040523d82523d6000602084013e610375565b606091505b50509050806103b9576040517f08c379a00000000000000000000000000000000000000000000000000000000081526004016103b090610a7d565b60405180910390fd5b5050565b60006103c761060f565b7f000000000000000000000000000000000000000000000000000000000000000073ffffffffffffffffffffffffffffffffffffffff166370a08231306040518263ffffffff1660e01b81526004016104209190610835565b602060405180830381865afa15801561043d573d6000803e3d6000fd5b505050506040513d601f19601f820116820180604052508101906104619190610ab2565b905090565b61046e61060f565b6104786000610696565b565b60008060009054906101000a900473ffffffffffffffffffffffffffffffffffffffff16905090565b6104ab61060f565b7f615b267c95eedc6fe9b4dd39731590c338de3094b95a839bfdb4285218d06be2346040516104da91906107d9565b60405180910390a17f000000000000000000000000000000000000000000000000000000000000000073ffffffffffffffffffffffffffffffffffffffff1663474cf53d34736ae43d3271ff6888e7fc43fd7321a503ff7389513060006040518563ffffffff1660e01b815260040161055593929190610b32565b6000604051808303818588803b15801561056e57600080fd5b505af1158015610582573d6000803e3d6000fd5b5050505050565b61059161060f565b600073ffffffffffffffffffffffffffffffffffffffff168173ffffffffffffffffffffffffffffffffffffffff16036106035760006040517f1e4fbdf70000000000000000000000000000000000000000000000000000000081526004016105fa9190610835565b60405180910390fd5b61060c81610696565b50565b61061761075a565b73ffffffffffffffffffffffffffffffffffffffff1661063561047a565b73ffffffffffffffffffffffffffffffffffffffff16146106945761065861075a565b6040517f118cdaa700000000000000000000000000000000000000000000000000000000815260040161068b9190610835565b60405180910390fd5b565b60008060009054906101000a900473ffffffffffffffffffffffffffffffffffffffff169050816000806101000a81548173ffffffffffffffffffffffffffffffffffffffff021916908373ffffffffffffffffffffffffffffffffffffffff1602179055508173ffffffffffffffffffffffffffffffffffffffff168173ffffffffffffffffffffffffffffffffffffffff167f8be0079c531659141344cd1fd0a4f28419497f9722a3daafe3b4186f6b6457e060405160405180910390a35050565b600033905090565b600080fd5b6000819050919050565b61077a81610767565b811461078557600080fd5b50565b60008135905061079781610771565b92915050565b6000602082840312156107b3576107b2610762565b5b60006107c184828501610788565b91505092915050565b6107d381610767565b82525050565b60006020820190506107ee60008301846107ca565b92915050565b600073ffffffffffffffffffffffffffffffffffffffff82169050919050565b600061081f826107f4565b9050919050565b61082f81610814565b82525050565b600060208201905061084a6000830184610826565b92915050565b61085981610814565b811461086457600080fd5b50565b60008135905061087681610850565b92915050565b60006020828403121561089257610891610762565b5b60006108a084828501610867565b91505092915050565b60006040820190506108be6000830185610826565b6108cb60208301846107ca565b9392505050565b60008115159050919050565b6108e7816108d2565b81146108f257600080fd5b50565b600081519050610904816108de565b92915050565b6000602082840312156109205761091f610762565b5b600061092e848285016108f5565b91505092915050565b600082825260208201905092915050565b7f617070726f7665206661696c6564000000000000000000000000000000000000600082015250565b600061097e600e83610937565b915061098982610948565b602082019050919050565b600060208201905081810360008301526109ad81610971565b9050919050565b60006060820190506109c96000830186610826565b6109d660208301856107ca565b6109e36040830184610826565b949350505050565b600081905092915050565b50565b6000610a066000836109eb565b9150610a11826109f6565b600082019050919050565b6000610a27826109f9565b9150819050919050565b7f4661696c656420746f2077697468647261772045746865720000000000000000600082015250565b6000610a67601883610937565b9150610a7282610a31565b602082019050919050565b60006020820190508181036000830152610a9681610a5a565b9050919050565b600081519050610aac81610771565b92915050565b600060208284031215610ac857610ac7610762565b5b6000610ad684828501610a9d565b91505092915050565b6000819050919050565b600061ffff82169050919050565b6000819050919050565b6000610b1c610b17610b1284610adf565b610af7565b610ae9565b9050919050565b610b2c81610b01565b82525050565b6000606082019050610b476000830186610826565b610b546020830185610826565b610b616040830184610b23565b94935050505056fea2646970667358221220fb6d289657eac1d83d680617dd3d014c701063cb1a96ad53f3a01066f69bc1f564736f6c63430008180033",
  "linkReferences": {},
  "deployedLinkReferences": {}
}