{
  "_format": "hh-sol-artifact-1",
  "contractName": "CryptoKDO",
  "sourceName": "contracts/CryptoKDO.sol",
  "abi": [
    {
      "inputs": [
        {
          "internalType": "contract IWrappedTokenGatewayV3",
          "name": "wtg",
          "type": "address"
        },
        {
          "internalType": "contract IERC20",
          "name": "erc20",
          "type": "address"
        },
        {
          "internalType": "uint64",
          "name": "_subscriptionId",
          "type": "uint64"
        },
        {
          "internalType": "address",
          "name": "vrfCoordinator",
          "type": "address"
        },
        {
          "internalType": "bytes32",
          "name": "_keyHash",
          "type": "bytes32"
        }
      ],
      "stateMutability": "nonpayable",
      "type": "constructor"
    },
    {
      "inputs": [
        {
          "internalType": "address",
          "name": "have",
          "type": "address"
        },
        {
          "internalType": "address",
          "name": "want",
          "type": "address"
        }
      ],
      "name": "OnlyCoordinatorCanFulfill",
      "type": "error"
    },
    {
      "anonymous": false,
      "inputs": [
        {
          "indexed": false,
          "internalType": "uint256",
          "name": "id",
          "type": "uint256"
        },
        {
          "indexed": false,
          "internalType": "address",
          "name": "giver",
          "type": "address"
        },
        {
          "indexed": false,
          "internalType": "uint256",
          "name": "amount",
          "type": "uint256"
        }
      ],
      "name": "DonationDone",
      "type": "event"
    },
    {
      "anonymous": false,
      "inputs": [
        {
          "components": [
            {
              "internalType": "uint256",
              "name": "amount",
              "type": "uint256"
            },
            {
              "internalType": "address",
              "name": "owner",
              "type": "address"
            },
            {
              "internalType": "address",
              "name": "receiver",
              "type": "address"
            },
            {
              "internalType": "string",
              "name": "title",
              "type": "string"
            },
            {
              "internalType": "string",
              "name": "description",
              "type": "string"
            },
            {
              "internalType": "address[]",
              "name": "givers",
              "type": "address[]"
            }
          ],
          "indexed": false,
          "internalType": "struct CryptoKDO.PrizePool",
          "name": "prizePool",
          "type": "tuple"
        }
      ],
      "name": "PrizePoolClosed",
      "type": "event"
    },
    {
      "anonymous": false,
      "inputs": [
        {
          "indexed": false,
          "internalType": "uint256",
          "name": "id",
          "type": "uint256"
        },
        {
          "indexed": false,
          "internalType": "address",
          "name": "owner",
          "type": "address"
        },
        {
          "indexed": false,
          "internalType": "address",
          "name": "receiver",
          "type": "address"
        },
        {
          "indexed": false,
          "internalType": "address[]",
          "name": "givers",
          "type": "address[]"
        },
        {
          "indexed": false,
          "internalType": "string",
          "name": "title",
          "type": "string"
        },
        {
          "indexed": false,
          "internalType": "string",
          "name": "description",
          "type": "string"
        }
      ],
      "name": "PrizePoolCreated",
      "type": "event"
    },
    {
      "inputs": [
        {
          "internalType": "uint256",
          "name": "index",
          "type": "uint256"
        }
      ],
      "name": "closePrizePool",
      "outputs": [],
      "stateMutability": "nonpayable",
      "type": "function"
    },
    {
      "inputs": [
        {
          "internalType": "address",
          "name": "receiver",
          "type": "address"
        },
        {
          "internalType": "address[]",
          "name": "givers",
          "type": "address[]"
        },
        {
          "internalType": "string",
          "name": "title",
          "type": "string"
        },
        {
          "internalType": "string",
          "name": "description",
          "type": "string"
        }
      ],
      "name": "createPrizePool",
      "outputs": [],
      "stateMutability": "nonpayable",
      "type": "function"
    },
    {
      "inputs": [],
      "name": "currentSupply",
      "outputs": [
        {
          "internalType": "uint256",
          "name": "",
          "type": "uint256"
        }
      ],
      "stateMutability": "view",
      "type": "function"
    },
    {
      "inputs": [
        {
          "internalType": "uint256",
          "name": "index",
          "type": "uint256"
        }
      ],
      "name": "donate",
      "outputs": [],
      "stateMutability": "payable",
      "type": "function"
    },
    {
      "inputs": [],
      "name": "getAllPrizePools",
      "outputs": [
        {
          "components": [
            {
              "internalType": "uint256",
              "name": "amount",
              "type": "uint256"
            },
            {
              "internalType": "address",
              "name": "owner",
              "type": "address"
            },
            {
              "internalType": "address",
              "name": "receiver",
              "type": "address"
            },
            {
              "internalType": "string",
              "name": "title",
              "type": "string"
            },
            {
              "internalType": "string",
              "name": "description",
              "type": "string"
            },
            {
              "internalType": "address[]",
              "name": "givers",
              "type": "address[]"
            }
          ],
          "internalType": "struct CryptoKDO.PrizePool[]",
          "name": "",
          "type": "tuple[]"
        }
      ],
      "stateMutability": "view",
      "type": "function"
    },
    {
      "inputs": [
        {
          "internalType": "uint256",
          "name": "index",
          "type": "uint256"
        }
      ],
      "name": "getPrizePool",
      "outputs": [
        {
          "components": [
            {
              "internalType": "uint256",
              "name": "amount",
              "type": "uint256"
            },
            {
              "internalType": "address",
              "name": "owner",
              "type": "address"
            },
            {
              "internalType": "address",
              "name": "receiver",
              "type": "address"
            },
            {
              "internalType": "string",
              "name": "title",
              "type": "string"
            },
            {
              "internalType": "string",
              "name": "description",
              "type": "string"
            },
            {
              "internalType": "address[]",
              "name": "givers",
              "type": "address[]"
            }
          ],
          "internalType": "struct CryptoKDO.PrizePool",
          "name": "",
          "type": "tuple"
        }
      ],
      "stateMutability": "view",
      "type": "function"
    },
    {
      "inputs": [],
      "name": "getTotalPrizePools",
      "outputs": [
        {
          "internalType": "uint256",
          "name": "",
          "type": "uint256"
        }
      ],
      "stateMutability": "view",
      "type": "function"
    },
    {
      "inputs": [],
      "name": "lastLotteryTimestamp",
      "outputs": [
        {
          "internalType": "uint256",
          "name": "",
          "type": "uint256"
        }
      ],
      "stateMutability": "view",
      "type": "function"
    },
    {
      "inputs": [
        {
          "internalType": "uint256",
          "name": "requestId",
          "type": "uint256"
        },
        {
          "internalType": "uint256[]",
          "name": "randomWords",
          "type": "uint256[]"
        }
      ],
      "name": "rawFulfillRandomWords",
      "outputs": [],
      "stateMutability": "nonpayable",
      "type": "function"
    },
    {
      "inputs": [],
      "name": "reward",
      "outputs": [
        {
          "internalType": "uint256",
          "name": "",
          "type": "uint256"
        }
      ],
      "stateMutability": "view",
      "type": "function"
    },
    {
      "inputs": [],
      "name": "updateRewards",
      "outputs": [],
      "stateMutability": "nonpayable",
      "type": "function"
    },
    {
      "inputs": [],
      "name": "winningPrizePoolId",
      "outputs": [
        {
          "internalType": "uint256",
          "name": "",
          "type": "uint256"
        }
      ],
      "stateMutability": "view",
      "type": "function"
    },
    {
      "stateMutability": "payable",
      "type": "receive"
    }
  ],
  "bytecode": "0x6101206040523480156200001257600080fd5b5060405162004610380380620046108339818101604052810190620000389190620002c9565b818073ffffffffffffffffffffffffffffffffffffffff1660808173ffffffffffffffffffffffffffffffffffffffff16815250505084846040516200007e9062000147565b6200008b929190620003e1565b604051809103906000f080158015620000a8573d6000803e3d6000fd5b5073ffffffffffffffffffffffffffffffffffffffff166101008173ffffffffffffffffffffffffffffffffffffffff16815250508173ffffffffffffffffffffffffffffffffffffffff1660a08173ffffffffffffffffffffffffffffffffffffffff16815250508267ffffffffffffffff1660c08167ffffffffffffffff16815250508060e081815250504260028190555050505050506200040e565b610f05806200370b83390190565b600080fd5b600073ffffffffffffffffffffffffffffffffffffffff82169050919050565b600062000187826200015a565b9050919050565b60006200019b826200017a565b9050919050565b620001ad816200018e565b8114620001b957600080fd5b50565b600081519050620001cd81620001a2565b92915050565b6000620001e0826200017a565b9050919050565b620001f281620001d3565b8114620001fe57600080fd5b50565b6000815190506200021281620001e7565b92915050565b600067ffffffffffffffff82169050919050565b620002378162000218565b81146200024357600080fd5b50565b60008151905062000257816200022c565b92915050565b62000268816200017a565b81146200027457600080fd5b50565b60008151905062000288816200025d565b92915050565b6000819050919050565b620002a3816200028e565b8114620002af57600080fd5b50565b600081519050620002c38162000298565b92915050565b600080600080600060a08688031215620002e857620002e762000155565b5b6000620002f888828901620001bc565b95505060206200030b8882890162000201565b94505060406200031e8882890162000246565b9350506060620003318882890162000277565b92505060806200034488828901620002b2565b9150509295509295909350565b6000819050919050565b60006200037c6200037662000370846200015a565b62000351565b6200015a565b9050919050565b600062000390826200035b565b9050919050565b6000620003a48262000383565b9050919050565b620003b68162000397565b82525050565b6000620003c98262000383565b9050919050565b620003db81620003bc565b82525050565b6000604082019050620003f86000830185620003ab565b620004076020830184620003d0565b9392505050565b60805160a05160c05160e051610100516132a3620004686000396000818161036f01528181610f2801526115020152600061164e0152600061166f015260006116120152600081816102a601526102fa01526132a36000f3fe6080604052600436106100ab5760003560e01c8063b2a28fc011610064578063b2a28fc0146101b5578063b7423134146101e0578063c63377a214610209578063d1b2697414610234578063ee5ae5721461025d578063f14faf6f14610288576100b2565b80631fe543e3146100b7578063228cb733146100e05780633e158b0c1461010b578063771282f6146101225780637822be4a1461014d57806388e59b471461018a576100b2565b366100b257005b600080fd5b3480156100c357600080fd5b506100de60048036038101906100d99190611f75565b6102a4565b005b3480156100ec57600080fd5b506100f5610364565b6040516101029190611fe0565b60405180910390f35b34801561011757600080fd5b5061012061036a565b005b34801561012e57600080fd5b50610137610466565b6040516101449190611fe0565b60405180910390f35b34801561015957600080fd5b50610174600480360381019061016f9190611ffb565b61046c565b604051610181919061223d565b60405180910390f35b34801561019657600080fd5b5061019f610782565b6040516101ac9190611fe0565b60405180910390f35b3480156101c157600080fd5b506101ca610788565b6040516101d79190611fe0565b60405180910390f35b3480156101ec57600080fd5b506102076004803603810190610202919061233c565b610794565b005b34801561021557600080fd5b5061021e610b78565b60405161022b9190611fe0565b60405180910390f35b34801561024057600080fd5b5061025b60048036038101906102569190611ffb565b610b7e565b005b34801561026957600080fd5b5061027261106e565b60405161027f919061255e565b60405180910390f35b6102a2600480360381019061029d9190611ffb565b611335565b005b7f000000000000000000000000000000000000000000000000000000000000000073ffffffffffffffffffffffffffffffffffffffff163373ffffffffffffffffffffffffffffffffffffffff161461035657337f00000000000000000000000000000000000000000000000000000000000000006040517f1cf993f400000000000000000000000000000000000000000000000000000000815260040161034d92919061258f565b60405180910390fd5b6103608282611584565b5050565b60045481565b6001547f000000000000000000000000000000000000000000000000000000000000000073ffffffffffffffffffffffffffffffffffffffff16636c9c2faf6040518163ffffffff1660e01b8152600401602060405180830381865afa1580156103d8573d6000803e3d6000fd5b505050506040513d601f19601f820116820180604052508101906103fc91906125cd565b6104069190612629565b600481905550620d2f0060025461041d919061265d565b4211156104645760045460016000828254610438919061265d565b92505081905550620d2f0060026000828254610454919061265d565b92505081905550610463611610565b5b565b60015481565b610474611c16565b600080549050821061048583611700565b60405160200161049591906126f3565b604051602081830303815290604052906104e5576040517f08c379a00000000000000000000000000000000000000000000000000000000081526004016104dc9190612763565b60405180910390fd5b50600082815481106104fa576104f9612785565b5b90600052602060002090600602016040518060c0016040529081600082015481526020016001820160009054906101000a900473ffffffffffffffffffffffffffffffffffffffff1673ffffffffffffffffffffffffffffffffffffffff1673ffffffffffffffffffffffffffffffffffffffff1681526020016002820160009054906101000a900473ffffffffffffffffffffffffffffffffffffffff1673ffffffffffffffffffffffffffffffffffffffff1673ffffffffffffffffffffffffffffffffffffffff1681526020016003820180546105d9906127e3565b80601f0160208091040260200160405190810160405280929190818152602001828054610605906127e3565b80156106525780601f1061062757610100808354040283529160200191610652565b820191906000526020600020905b81548152906001019060200180831161063557829003601f168201915b5050505050815260200160048201805461066b906127e3565b80601f0160208091040260200160405190810160405280929190818152602001828054610697906127e3565b80156106e45780601f106106b9576101008083540402835291602001916106e4565b820191906000526020600020905b8154815290600101906020018083116106c757829003601f168201915b505050505081526020016005820180548060200260200160405190810160405280929190818152602001828054801561077257602002820191906000526020600020905b8160009054906101000a900473ffffffffffffffffffffffffffffffffffffffff1673ffffffffffffffffffffffffffffffffffffffff1681526020019060010190808311610728575b5050505050815250509050919050565b60025481565b60008080549050905090565b600073ffffffffffffffffffffffffffffffffffffffff168773ffffffffffffffffffffffffffffffffffffffff1603610803576040517f08c379a00000000000000000000000000000000000000000000000000000000081526004016107fa90612886565b60405180910390fd5b60008686905011610849576040517f08c379a000000000000000000000000000000000000000000000000000000000815260040161084090612918565b60405180910390fd5b6108a684848080601f016020809104026020016040519081016040528093929190818152602001838380828437600081840152601f19601f82011690508083019250505050505050604051806020016040528060008152506117ce565b156108e6576040517f08c379a00000000000000000000000000000000000000000000000000000000081526004016108dd906129aa565b60405180910390fd5b60006040518060c00160405280600081526020013373ffffffffffffffffffffffffffffffffffffffff1681526020018973ffffffffffffffffffffffffffffffffffffffff16815260200186868080601f016020809104026020016040519081016040528093929190818152602001838380828437600081840152601f19601f82011690508083019250505050505050815260200184848080601f016020809104026020016040519081016040528093929190818152602001838380828437600081840152601f19601f820116905080830192505050505050508152602001888880806020026020016040519081016040528093929190818152602001838360200280828437600081840152601f19601f8201169050808301925050505050505081525090806001815401808255809150506001900390600052602060002090600602016000909190919091506000820151816000015560208201518160010160006101000a81548173ffffffffffffffffffffffffffffffffffffffff021916908373ffffffffffffffffffffffffffffffffffffffff16021790555060408201518160020160006101000a81548173ffffffffffffffffffffffffffffffffffffffff021916908373ffffffffffffffffffffffffffffffffffffffff1602179055506060820151816003019081610ae19190612b76565b506080820151816004019081610af79190612b76565b5060a0820151816005019080519060200190610b14929190611c78565b5050507f831185aba16d948f9f2ea0aa55a5f9b854c1a5629ef7bbe724055e5630435b5f6001600080549050610b4a9190612629565b3389898989898989604051610b6799989796959493929190612d20565b60405180910390a150505050505050565b60035481565b60008181548110610b9257610b91612785565b5b906000526020600020906006020160010160009054906101000a900473ffffffffffffffffffffffffffffffffffffffff1673ffffffffffffffffffffffffffffffffffffffff163373ffffffffffffffffffffffffffffffffffffffff1614610c31576040517f08c379a0000000000000000000000000000000000000000000000000000000008152600401610c2890612e0e565b60405180910390fd5b6000808281548110610c4657610c45612785565b5b90600052602060002090600602016040518060c0016040529081600082015481526020016001820160009054906101000a900473ffffffffffffffffffffffffffffffffffffffff1673ffffffffffffffffffffffffffffffffffffffff1673ffffffffffffffffffffffffffffffffffffffff1681526020016002820160009054906101000a900473ffffffffffffffffffffffffffffffffffffffff1673ffffffffffffffffffffffffffffffffffffffff1673ffffffffffffffffffffffffffffffffffffffff168152602001600382018054610d25906127e3565b80601f0160208091040260200160405190810160405280929190818152602001828054610d51906127e3565b8015610d9e5780601f10610d7357610100808354040283529160200191610d9e565b820191906000526020600020905b815481529060010190602001808311610d8157829003601f168201915b50505050508152602001600482018054610db7906127e3565b80601f0160208091040260200160405190810160405280929190818152602001828054610de3906127e3565b8015610e305780601f10610e0557610100808354040283529160200191610e30565b820191906000526020600020905b815481529060010190602001808311610e1357829003601f168201915b5050505050815260200160058201805480602002602001604051908101604052809291908181526020018280548015610ebe57602002820191906000526020600020905b8160009054906101000a900473ffffffffffffffffffffffffffffffffffffffff1673ffffffffffffffffffffffffffffffffffffffff1681526020019060010190808311610e74575b5050505050815250509050610ed2826117f6565b806000015160016000828254610ee89190612629565b925050819055507fcbf523e84d72c729ae117e16e878c9ef49804ad38c3dde45e6f2392b6ea0921181604051610f1e919061223d565b60405180910390a17f000000000000000000000000000000000000000000000000000000000000000073ffffffffffffffffffffffffffffffffffffffff16632e1a7d4d82600001516040518263ffffffff1660e01b8152600401610f839190611fe0565b600060405180830381600087803b158015610f9d57600080fd5b505af1158015610fb1573d6000803e3d6000fd5b505050506000816040015173ffffffffffffffffffffffffffffffffffffffff168260000151604051610fe390612e5f565b60006040518083038185875af1925050503d8060008114611020576040519150601f19603f3d011682016040523d82523d6000602084013e611025565b606091505b5050905080611069576040517f08c379a000000000000000000000000000000000000000000000000000000000815260040161106090612ec0565b60405180910390fd5b505050565b60606000805480602002602001604051908101604052809291908181526020016000905b8282101561132c57838290600052602060002090600602016040518060c0016040529081600082015481526020016001820160009054906101000a900473ffffffffffffffffffffffffffffffffffffffff1673ffffffffffffffffffffffffffffffffffffffff1673ffffffffffffffffffffffffffffffffffffffff1681526020016002820160009054906101000a900473ffffffffffffffffffffffffffffffffffffffff1673ffffffffffffffffffffffffffffffffffffffff1673ffffffffffffffffffffffffffffffffffffffff16815260200160038201805461117b906127e3565b80601f01602080910402602001604051908101604052809291908181526020018280546111a7906127e3565b80156111f45780601f106111c9576101008083540402835291602001916111f4565b820191906000526020600020905b8154815290600101906020018083116111d757829003601f168201915b5050505050815260200160048201805461120d906127e3565b80601f0160208091040260200160405190810160405280929190818152602001828054611239906127e3565b80156112865780601f1061125b57610100808354040283529160200191611286565b820191906000526020600020905b81548152906001019060200180831161126957829003601f168201915b505050505081526020016005820180548060200260200160405190810160405280929190818152602001828054801561131457602002820191906000526020600020905b8160009054906101000a900473ffffffffffffffffffffffffffffffffffffffff1673ffffffffffffffffffffffffffffffffffffffff16815260200190600101908083116112ca575b50505050508152505081526020019060010190611092565b50505050905090565b6113e76000828154811061134c5761134b612785565b5b90600052602060002090600602016005018054806020026020016040519081016040528092919081815260200182805480156113dd57602002820191906000526020600020905b8160009054906101000a900473ffffffffffffffffffffffffffffffffffffffff1673ffffffffffffffffffffffffffffffffffffffff1681526020019060010190808311611393575b5050505050611a43565b611426576040517f08c379a000000000000000000000000000000000000000000000000000000000815260040161141d90612f52565b60405180910390fd5b660aa87bee538000341015611470576040517f08c379a000000000000000000000000000000000000000000000000000000000815260040161146790612fbe565b60405180910390fd5b346000828154811061148557611484612785565b5b906000526020600020906006020160000160008282546114a5919061265d565b9250508190555034600160008282546114be919061265d565b925050819055507fa1d2d59e3d6ef1c035937977cfb91f45013a826082d193f07bc4ff7931453d018133346040516114f893929190612fde565b60405180910390a17f000000000000000000000000000000000000000000000000000000000000000073ffffffffffffffffffffffffffffffffffffffff1663d0e30db0346040518263ffffffff1660e01b81526004016000604051808303818588803b15801561156857600080fd5b505af115801561157c573d6000803e3d6000fd5b505050505050565b816005541461159257600080fd5b600080549050816000815181106115ac576115ab612785565b5b60200260200101516115be9190613044565b6003819055506004546000600354815481106115dd576115dc612785565b5b906000526020600020906006020160000160008282546115fd919061265d565b9250508190555060006004819055505050565b7f000000000000000000000000000000000000000000000000000000000000000073ffffffffffffffffffffffffffffffffffffffff16635d3b1d307f00000000000000000000000000000000000000000000000000000000000000007f00000000000000000000000000000000000000000000000000000000000000006003619c4060016040518663ffffffff1660e01b81526004016116b59594939291906130ed565b6020604051808303816000875af11580156116d4573d6000803e3d6000fd5b505050506040513d601f19601f820116820180604052508101906116f891906125cd565b600581905550565b60606000600161170f84611ac3565b01905060008167ffffffffffffffff81111561172e5761172d611e32565b5b6040519080825280601f01601f1916602001820160405280156117605781602001600182028036833780820191505090505b509050600082602001820190505b6001156117c3578080600190039150507f3031323334353637383961626364656600000000000000000000000000000000600a86061a8153600a85816117b7576117b6613015565b5b0494506000850361176e575b819350505050919050565b6000815183511480156117ee575081805190602001208380519060200120145b905092915050565b60008190505b600160008054905061180e9190612629565b81101561198e576000600182611824919061265d565b8154811061183557611834612785565b5b90600052602060002090600602016000828154811061185757611856612785565b5b9060005260206000209060060201600082015481600001556001820160009054906101000a900473ffffffffffffffffffffffffffffffffffffffff168160010160006101000a81548173ffffffffffffffffffffffffffffffffffffffff021916908373ffffffffffffffffffffffffffffffffffffffff1602179055506002820160009054906101000a900473ffffffffffffffffffffffffffffffffffffffff168160020160006101000a81548173ffffffffffffffffffffffffffffffffffffffff021916908373ffffffffffffffffffffffffffffffffffffffff160217905550600382018160030190816119519190613156565b50600482018160040190816119669190613156565b50600582018160050190805461197d929190611d02565b5090505080806001019150506117fc565b5060008054806119a1576119a061323e565b5b60019003818190600052602060002090600602016000808201600090556001820160006101000a81549073ffffffffffffffffffffffffffffffffffffffff02191690556002820160006101000a81549073ffffffffffffffffffffffffffffffffffffffff0219169055600382016000611a1c9190611d54565b600482016000611a2c9190611d54565b600582016000611a3c9190611d94565b5050905550565b600080600090505b8251811015611ab857828181518110611a6757611a66612785565b5b602002602001015173ffffffffffffffffffffffffffffffffffffffff163373ffffffffffffffffffffffffffffffffffffffff1603611aab576001915050611abe565b8080600101915050611a4b565b50600090505b919050565b600080600090507a184f03e93ff9f4daa797ed6e38ed64bf6a1f0100000000000000008310611b21577a184f03e93ff9f4daa797ed6e38ed64bf6a1f0100000000000000008381611b1757611b16613015565b5b0492506040810190505b6d04ee2d6d415b85acef81000000008310611b5e576d04ee2d6d415b85acef81000000008381611b5457611b53613015565b5b0492506020810190505b662386f26fc100008310611b8d57662386f26fc100008381611b8357611b82613015565b5b0492506010810190505b6305f5e1008310611bb6576305f5e1008381611bac57611bab613015565b5b0492506008810190505b6127108310611bdb576127108381611bd157611bd0613015565b5b0492506004810190505b60648310611bfe5760648381611bf457611bf3613015565b5b0492506002810190505b600a8310611c0d576001810190505b80915050919050565b6040518060c0016040528060008152602001600073ffffffffffffffffffffffffffffffffffffffff168152602001600073ffffffffffffffffffffffffffffffffffffffff1681526020016060815260200160608152602001606081525090565b828054828255906000526020600020908101928215611cf1579160200282015b82811115611cf05782518260006101000a81548173ffffffffffffffffffffffffffffffffffffffff021916908373ffffffffffffffffffffffffffffffffffffffff16021790555091602001919060010190611c98565b5b509050611cfe9190611db5565b5090565b828054828255906000526020600020908101928215611d435760005260206000209182015b82811115611d42578254825591600101919060010190611d27565b5b509050611d509190611db5565b5090565b508054611d60906127e3565b6000825580601f10611d725750611d91565b601f016020900490600052602060002090810190611d909190611db5565b5b50565b5080546000825590600052602060002090810190611db29190611db5565b50565b5b80821115611dce576000816000905550600101611db6565b5090565b6000604051905090565b600080fd5b600080fd5b6000819050919050565b611df981611de6565b8114611e0457600080fd5b50565b600081359050611e1681611df0565b92915050565b600080fd5b6000601f19601f8301169050919050565b7f4e487b7100000000000000000000000000000000000000000000000000000000600052604160045260246000fd5b611e6a82611e21565b810181811067ffffffffffffffff82111715611e8957611e88611e32565b5b80604052505050565b6000611e9c611dd2565b9050611ea88282611e61565b919050565b600067ffffffffffffffff821115611ec857611ec7611e32565b5b602082029050602081019050919050565b600080fd5b6000611ef1611eec84611ead565b611e92565b90508083825260208201905060208402830185811115611f1457611f13611ed9565b5b835b81811015611f3d5780611f298882611e07565b845260208401935050602081019050611f16565b5050509392505050565b600082601f830112611f5c57611f5b611e1c565b5b8135611f6c848260208601611ede565b91505092915050565b60008060408385031215611f8c57611f8b611ddc565b5b6000611f9a85828601611e07565b925050602083013567ffffffffffffffff811115611fbb57611fba611de1565b5b611fc785828601611f47565b9150509250929050565b611fda81611de6565b82525050565b6000602082019050611ff56000830184611fd1565b92915050565b60006020828403121561201157612010611ddc565b5b600061201f84828501611e07565b91505092915050565b61203181611de6565b82525050565b600073ffffffffffffffffffffffffffffffffffffffff82169050919050565b600061206282612037565b9050919050565b61207281612057565b82525050565b600081519050919050565b600082825260208201905092915050565b60005b838110156120b2578082015181840152602081019050612097565b60008484015250505050565b60006120c982612078565b6120d38185612083565b93506120e3818560208601612094565b6120ec81611e21565b840191505092915050565b600081519050919050565b600082825260208201905092915050565b6000819050602082019050919050565b600061212f8383612069565b60208301905092915050565b6000602082019050919050565b6000612153826120f7565b61215d8185612102565b935061216883612113565b8060005b838110156121995781516121808882612123565b975061218b8361213b565b92505060018101905061216c565b5085935050505092915050565b600060c0830160008301516121be6000860182612028565b5060208301516121d16020860182612069565b5060408301516121e46040860182612069565b50606083015184820360608601526121fc82826120be565b9150506080830151848203608086015261221682826120be565b91505060a083015184820360a08601526122308282612148565b9150508091505092915050565b6000602082019050818103600083015261225781846121a6565b905092915050565b61226881612057565b811461227357600080fd5b50565b6000813590506122858161225f565b92915050565b600080fd5b60008083601f8401126122a6576122a5611e1c565b5b8235905067ffffffffffffffff8111156122c3576122c261228b565b5b6020830191508360208202830111156122df576122de611ed9565b5b9250929050565b60008083601f8401126122fc576122fb611e1c565b5b8235905067ffffffffffffffff8111156123195761231861228b565b5b60208301915083600182028301111561233557612334611ed9565b5b9250929050565b60008060008060008060006080888a03121561235b5761235a611ddc565b5b60006123698a828b01612276565b975050602088013567ffffffffffffffff81111561238a57612389611de1565b5b6123968a828b01612290565b9650965050604088013567ffffffffffffffff8111156123b9576123b8611de1565b5b6123c58a828b016122e6565b9450945050606088013567ffffffffffffffff8111156123e8576123e7611de1565b5b6123f48a828b016122e6565b925092505092959891949750929550565b600081519050919050565b600082825260208201905092915050565b6000819050602082019050919050565b600060c0830160008301516124496000860182612028565b50602083015161245c6020860182612069565b50604083015161246f6040860182612069565b506060830151848203606086015261248782826120be565b915050608083015184820360808601526124a182826120be565b91505060a083015184820360a08601526124bb8282612148565b9150508091505092915050565b60006124d48383612431565b905092915050565b6000602082019050919050565b60006124f482612405565b6124fe8185612410565b93508360208202850161251085612421565b8060005b8581101561254c578484038952815161252d85826124c8565b9450612538836124dc565b925060208a01995050600181019050612514565b50829750879550505050505092915050565b6000602082019050818103600083015261257881846124e9565b905092915050565b61258981612057565b82525050565b60006040820190506125a46000830185612580565b6125b16020830184612580565b9392505050565b6000815190506125c781611df0565b92915050565b6000602082840312156125e3576125e2611ddc565b5b60006125f1848285016125b8565b91505092915050565b7f4e487b7100000000000000000000000000000000000000000000000000000000600052601160045260246000fd5b600061263482611de6565b915061263f83611de6565b9250828203905081811115612657576126566125fa565b5b92915050565b600061266882611de6565b915061267383611de6565b925082820190508082111561268b5761268a6125fa565b5b92915050565b7f416e79207072697a6520706f6f6c20657869737420617420696e646578200000815250565b600081905092915050565b60006126cd82612078565b6126d781856126b7565b93506126e7818560208601612094565b80840191505092915050565b60006126fe82612691565b601e8201915061270e82846126c2565b915081905092915050565b600082825260208201905092915050565b600061273582612078565b61273f8185612719565b935061274f818560208601612094565b61275881611e21565b840191505092915050565b6000602082019050818103600083015261277d818461272a565b905092915050565b7f4e487b7100000000000000000000000000000000000000000000000000000000600052603260045260246000fd5b7f4e487b7100000000000000000000000000000000000000000000000000000000600052602260045260246000fd5b600060028204905060018216806127fb57607f821691505b60208210810361280e5761280d6127b4565b5b50919050565b7f596f752063616e6e6f7420637265617465207072697a6520706f6f6c2077697460008201527f686f757420726563656976657200000000000000000000000000000000000000602082015250565b6000612870602d83612719565b915061287b82612814565b604082019050919050565b6000602082019050818103600083015261289f81612863565b9050919050565b7f596f752063616e6e6f7420637265617465207072697a6520706f6f6c2077697460008201527f686f757420676976657200000000000000000000000000000000000000000000602082015250565b6000612902602a83612719565b915061290d826128a6565b604082019050919050565b60006020820190508181036000830152612931816128f5565b9050919050565b7f596f752063616e6e6f7420637265617465207072697a6520706f6f6c2077697460008201527f686f7574207469746c6500000000000000000000000000000000000000000000602082015250565b6000612994602a83612719565b915061299f82612938565b604082019050919050565b600060208201905081810360008301526129c381612987565b9050919050565b60008190508160005260206000209050919050565b60006020601f8301049050919050565b600082821b905092915050565b600060088302612a2c7fffffffffffffffffffffffffffffffffffffffffffffffffffffffffffffffff826129ef565b612a3686836129ef565b95508019841693508086168417925050509392505050565b6000819050919050565b6000612a73612a6e612a6984611de6565b612a4e565b611de6565b9050919050565b6000819050919050565b612a8d83612a58565b612aa1612a9982612a7a565b8484546129fc565b825550505050565b600090565b612ab6612aa9565b612ac1818484612a84565b505050565b5b81811015612ae557612ada600082612aae565b600181019050612ac7565b5050565b601f821115612b2a57612afb816129ca565b612b04846129df565b81016020851015612b13578190505b612b27612b1f856129df565b830182612ac6565b50505b505050565b600082821c905092915050565b6000612b4d60001984600802612b2f565b1980831691505092915050565b6000612b668383612b3c565b9150826002028217905092915050565b612b7f82612078565b67ffffffffffffffff811115612b9857612b97611e32565b5b612ba282546127e3565b612bad828285612ae9565b600060209050601f831160018114612be05760008415612bce578287015190505b612bd88582612b5a565b865550612c40565b601f198416612bee866129ca565b60005b82811015612c1657848901518255600182019150602085019450602081019050612bf1565b86831015612c335784890151612c2f601f891682612b3c565b8355505b6001600288020188555050505b505050505050565b600082825260208201905092915050565b6000819050919050565b6000612c726020840184612276565b905092915050565b6000602082019050919050565b6000612c938385612c48565b9350612c9e82612c59565b8060005b85811015612cd757612cb48284612c63565b612cbe8882612123565b9750612cc983612c7a565b925050600181019050612ca2565b5085925050509392505050565b82818337600083830152505050565b6000612cff8385612719565b9350612d0c838584612ce4565b612d1583611e21565b840190509392505050565b600060c082019050612d35600083018c611fd1565b612d42602083018b612580565b612d4f604083018a612580565b8181036060830152612d6281888a612c87565b90508181036080830152612d77818688612cf3565b905081810360a0830152612d8c818486612cf3565b90509a9950505050505050505050565b7f596f752063616e6e6f7420636c6f7365207072697a6520706f6f6c206966207960008201527f6f7520617265206e6f74206f776e657200000000000000000000000000000000602082015250565b6000612df8603083612719565b9150612e0382612d9c565b604082019050919050565b60006020820190508181036000830152612e2781612deb565b9050919050565b600081905092915050565b50565b6000612e49600083612e2e565b9150612e5482612e39565b600082019050919050565b6000612e6a82612e3c565b9150819050919050565b7f4661696c656420746f2077697468647261772045746865720000000000000000600082015250565b6000612eaa601883612719565b9150612eb582612e74565b602082019050919050565b60006020820190508181036000830152612ed981612e9d565b9050919050565b7f596f752063616e6e6f7420646f6e61746520696620796f7520617265206e6f7460008201527f2067697665720000000000000000000000000000000000000000000000000000602082015250565b6000612f3c602683612719565b9150612f4782612ee0565b604082019050919050565b60006020820190508181036000830152612f6b81612f2f565b9050919050565b7f446f6e6174696f6e206d696e696d756d20697320302e30303320657468657200600082015250565b6000612fa8601f83612719565b9150612fb382612f72565b602082019050919050565b60006020820190508181036000830152612fd781612f9b565b9050919050565b6000606082019050612ff36000830186611fd1565b6130006020830185612580565b61300d6040830184611fd1565b949350505050565b7f4e487b7100000000000000000000000000000000000000000000000000000000600052601260045260246000fd5b600061304f82611de6565b915061305a83611de6565b92508261306a57613069613015565b5b828206905092915050565b6000819050919050565b61308881613075565b82525050565b600067ffffffffffffffff82169050919050565b6130ab8161308e565b82525050565b600061ffff82169050919050565b6130c8816130b1565b82525050565b600063ffffffff82169050919050565b6130e7816130ce565b82525050565b600060a082019050613102600083018861307f565b61310f60208301876130a2565b61311c60408301866130bf565b61312960608301856130de565b61313660808301846130de565b9695505050505050565b60008154905061314f816127e3565b9050919050565b81810361316457505061323c565b61316d82613140565b67ffffffffffffffff81111561318657613185611e32565b5b61319082546127e3565b61319b828285612ae9565b6000601f8311600181146131ca57600084156131b8578287015490505b6131c28582612b5a565b865550613235565b601f1984166131d8876129ca565b96506131e3866129ca565b60005b8281101561320b578489015482556001820191506001850194506020810190506131e6565b868310156132285784890154613224601f891682612b3c565b8355505b6001600288020188555050505b5050505050505b565b7f4e487b7100000000000000000000000000000000000000000000000000000000600052603160045260246000fdfea2646970667358221220b7525d5d915d14a21e048d1997bf9f3d906f6393233fff175fdd31d3d29f64b164736f6c6343000818003360c06040523480156200001157600080fd5b5060405162000f0538038062000f058339818101604052810190620000379190620002b6565b33600073ffffffffffffffffffffffffffffffffffffffff168173ffffffffffffffffffffffffffffffffffffffff1603620000ad5760006040517f1e4fbdf7000000000000000000000000000000000000000000000000000000008152600401620000a491906200030e565b60405180910390fd5b620000be816200012f60201b60201c565b508173ffffffffffffffffffffffffffffffffffffffff1660808173ffffffffffffffffffffffffffffffffffffffff16815250508073ffffffffffffffffffffffffffffffffffffffff1660a08173ffffffffffffffffffffffffffffffffffffffff168152505050506200032b565b60008060009054906101000a900473ffffffffffffffffffffffffffffffffffffffff169050816000806101000a81548173ffffffffffffffffffffffffffffffffffffffff021916908373ffffffffffffffffffffffffffffffffffffffff1602179055508173ffffffffffffffffffffffffffffffffffffffff168173ffffffffffffffffffffffffffffffffffffffff167f8be0079c531659141344cd1fd0a4f28419497f9722a3daafe3b4186f6b6457e060405160405180910390a35050565b600080fd5b600073ffffffffffffffffffffffffffffffffffffffff82169050919050565b60006200022582620001f8565b9050919050565b6000620002398262000218565b9050919050565b6200024b816200022c565b81146200025757600080fd5b50565b6000815190506200026b8162000240565b92915050565b60006200027e8262000218565b9050919050565b620002908162000271565b81146200029c57600080fd5b50565b600081519050620002b08162000285565b92915050565b60008060408385031215620002d057620002cf620001f3565b5b6000620002e0858286016200025a565b9250506020620002f3858286016200029f565b9150509250929050565b620003088162000218565b82525050565b6000602082019050620003256000830184620002fd565b92915050565b60805160a051610b9f620003666000396000818161016f01526103c90152600081816101ab0152818161026c01526104e40152610b9f6000f3fe6080604052600436106100595760003560e01c80632e1a7d4d146100655780636c9c2faf1461008e578063715018a6146100b95780638da5cb5b146100d0578063d0e30db0146100fb578063f2fde38b1461010557610060565b3661006057005b600080fd5b34801561007157600080fd5b5061008c6004803603810190610087919061079d565b61012e565b005b34801561009a57600080fd5b506100a36103bd565b6040516100b091906107d9565b60405180910390f35b3480156100c557600080fd5b506100ce610466565b005b3480156100dc57600080fd5b506100e561047a565b6040516100f29190610835565b60405180910390f35b6101036104a3565b005b34801561011157600080fd5b5061012c6004803603810190610127919061087c565b610589565b005b61013661060f565b7f69c576a2a079081c42f3d736400cd8417d416e63460fe078921cdf3617d319c58160405161016591906107d9565b60405180910390a17f000000000000000000000000000000000000000000000000000000000000000073ffffffffffffffffffffffffffffffffffffffff1663095ea7b37f0000000000000000000000000000000000000000000000000000000000000000836040518363ffffffff1660e01b81526004016101e89291906108a9565b6020604051808303816000875af1158015610207573d6000803e3d6000fd5b505050506040513d601f19601f8201168201806040525081019061022b919061090a565b61026a576040517f08c379a000000000000000000000000000000000000000000000000000000000815260040161026190610994565b60405180910390fd5b7f000000000000000000000000000000000000000000000000000000000000000073ffffffffffffffffffffffffffffffffffffffff166380500d20736ae43d3271ff6888e7fc43fd7321a503ff73895183306040518463ffffffff1660e01b81526004016102db939291906109b4565b600060405180830381600087803b1580156102f557600080fd5b505af1158015610309573d6000803e3d6000fd5b5050505060003373ffffffffffffffffffffffffffffffffffffffff164760405161033390610a1c565b60006040518083038185875af1925050503d8060008114610370576040519150601f19603f3d011682016040523d82523d6000602084013e610375565b606091505b50509050806103b9576040517f08c379a00000000000000000000000000000000000000000000000000000000081526004016103b090610a7d565b60405180910390fd5b5050565b60006103c761060f565b7f000000000000000000000000000000000000000000000000000000000000000073ffffffffffffffffffffffffffffffffffffffff166370a08231306040518263ffffffff1660e01b81526004016104209190610835565b602060405180830381865afa15801561043d573d6000803e3d6000fd5b505050506040513d601f19601f820116820180604052508101906104619190610ab2565b905090565b61046e61060f565b6104786000610696565b565b60008060009054906101000a900473ffffffffffffffffffffffffffffffffffffffff16905090565b6104ab61060f565b7f615b267c95eedc6fe9b4dd39731590c338de3094b95a839bfdb4285218d06be2346040516104da91906107d9565b60405180910390a17f000000000000000000000000000000000000000000000000000000000000000073ffffffffffffffffffffffffffffffffffffffff1663474cf53d34736ae43d3271ff6888e7fc43fd7321a503ff7389513060006040518563ffffffff1660e01b815260040161055593929190610b32565b6000604051808303818588803b15801561056e57600080fd5b505af1158015610582573d6000803e3d6000fd5b5050505050565b61059161060f565b600073ffffffffffffffffffffffffffffffffffffffff168173ffffffffffffffffffffffffffffffffffffffff16036106035760006040517f1e4fbdf70000000000000000000000000000000000000000000000000000000081526004016105fa9190610835565b60405180910390fd5b61060c81610696565b50565b61061761075a565b73ffffffffffffffffffffffffffffffffffffffff1661063561047a565b73ffffffffffffffffffffffffffffffffffffffff16146106945761065861075a565b6040517f118cdaa700000000000000000000000000000000000000000000000000000000815260040161068b9190610835565b60405180910390fd5b565b60008060009054906101000a900473ffffffffffffffffffffffffffffffffffffffff169050816000806101000a81548173ffffffffffffffffffffffffffffffffffffffff021916908373ffffffffffffffffffffffffffffffffffffffff1602179055508173ffffffffffffffffffffffffffffffffffffffff168173ffffffffffffffffffffffffffffffffffffffff167f8be0079c531659141344cd1fd0a4f28419497f9722a3daafe3b4186f6b6457e060405160405180910390a35050565b600033905090565b600080fd5b6000819050919050565b61077a81610767565b811461078557600080fd5b50565b60008135905061079781610771565b92915050565b6000602082840312156107b3576107b2610762565b5b60006107c184828501610788565b91505092915050565b6107d381610767565b82525050565b60006020820190506107ee60008301846107ca565b92915050565b600073ffffffffffffffffffffffffffffffffffffffff82169050919050565b600061081f826107f4565b9050919050565b61082f81610814565b82525050565b600060208201905061084a6000830184610826565b92915050565b61085981610814565b811461086457600080fd5b50565b60008135905061087681610850565b92915050565b60006020828403121561089257610891610762565b5b60006108a084828501610867565b91505092915050565b60006040820190506108be6000830185610826565b6108cb60208301846107ca565b9392505050565b60008115159050919050565b6108e7816108d2565b81146108f257600080fd5b50565b600081519050610904816108de565b92915050565b6000602082840312156109205761091f610762565b5b600061092e848285016108f5565b91505092915050565b600082825260208201905092915050565b7f617070726f7665206661696c6564000000000000000000000000000000000000600082015250565b600061097e600e83610937565b915061098982610948565b602082019050919050565b600060208201905081810360008301526109ad81610971565b9050919050565b60006060820190506109c96000830186610826565b6109d660208301856107ca565b6109e36040830184610826565b949350505050565b600081905092915050565b50565b6000610a066000836109eb565b9150610a11826109f6565b600082019050919050565b6000610a27826109f9565b9150819050919050565b7f4661696c656420746f2077697468647261772045746865720000000000000000600082015250565b6000610a67601883610937565b9150610a7282610a31565b602082019050919050565b60006020820190508181036000830152610a9681610a5a565b9050919050565b600081519050610aac81610771565b92915050565b600060208284031215610ac857610ac7610762565b5b6000610ad684828501610a9d565b91505092915050565b6000819050919050565b600061ffff82169050919050565b6000819050919050565b6000610b1c610b17610b1284610adf565b610af7565b610ae9565b9050919050565b610b2c81610b01565b82525050565b6000606082019050610b476000830186610826565b610b546020830185610826565b610b616040830184610b23565b94935050505056fea2646970667358221220f1df09cac11f5731e650f86209be4fb306973b5fcd218681de4138870ed5d7ba64736f6c63430008180033",
  "linkReferences": {},
  "deployedLinkReferences": {}
}