{
  "_format": "hh-sol-artifact-1",
  "contractName": "WrappedTokenGatewayMock",
  "sourceName": "contracts/mock/WrappedTokenGatewayMock.sol",
  "abi": [
    {
      "inputs": [
        {
          "internalType": "contract IERC20",
          "name": "erc20",
          "type": "address"
        }
      ],
      "stateMutability": "payable",
      "type": "constructor"
    },
    {
      "inputs": [
        {
          "internalType": "address",
          "name": "pool",
          "type": "address"
        },
        {
          "internalType": "uint256",
          "name": "amount",
          "type": "uint256"
        },
        {
          "internalType": "uint256",
          "name": "interestRateMode",
          "type": "uint256"
        },
        {
          "internalType": "uint16",
          "name": "referralCode",
          "type": "uint16"
        }
      ],
      "name": "borrowETH",
      "outputs": [],
      "stateMutability": "nonpayable",
      "type": "function"
    },
    {
      "inputs": [
        {
          "internalType": "address",
          "name": "pool",
          "type": "address"
        },
        {
          "internalType": "address",
          "name": "onBehalfOf",
          "type": "address"
        },
        {
          "internalType": "uint16",
          "name": "referralCode",
          "type": "uint16"
        }
      ],
      "name": "depositETH",
      "outputs": [],
      "stateMutability": "payable",
      "type": "function"
    },
    {
      "inputs": [
        {
          "internalType": "address",
          "name": "pool",
          "type": "address"
        },
        {
          "internalType": "uint256",
          "name": "amount",
          "type": "uint256"
        },
        {
          "internalType": "uint256",
          "name": "rateMode",
          "type": "uint256"
        },
        {
          "internalType": "address",
          "name": "onBehalfOf",
          "type": "address"
        }
      ],
      "name": "repayETH",
      "outputs": [],
      "stateMutability": "payable",
      "type": "function"
    },
    {
      "inputs": [
        {
          "internalType": "address",
          "name": "pool",
          "type": "address"
        },
        {
          "internalType": "uint256",
          "name": "amount",
          "type": "uint256"
        },
        {
          "internalType": "address",
          "name": "onBehalfOf",
          "type": "address"
        }
      ],
      "name": "withdrawETH",
      "outputs": [],
      "stateMutability": "nonpayable",
      "type": "function"
    },
    {
      "inputs": [
        {
          "internalType": "address",
          "name": "pool",
          "type": "address"
        },
        {
          "internalType": "uint256",
          "name": "amount",
          "type": "uint256"
        },
        {
          "internalType": "address",
          "name": "to",
          "type": "address"
        },
        {
          "internalType": "uint256",
          "name": "deadline",
          "type": "uint256"
        },
        {
          "internalType": "uint8",
          "name": "permitV",
          "type": "uint8"
        },
        {
          "internalType": "bytes32",
          "name": "permitR",
          "type": "bytes32"
        },
        {
          "internalType": "bytes32",
          "name": "permitS",
          "type": "bytes32"
        }
      ],
      "name": "withdrawETHWithPermit",
      "outputs": [],
      "stateMutability": "nonpayable",
      "type": "function"
    },
    {
      "stateMutability": "payable",
      "type": "receive"
    }
  ],
  "bytecode": "0x6080604052604051610982380380610982833981810160405281019061002591906100e0565b806000806101000a81548173ffffffffffffffffffffffffffffffffffffffff021916908373ffffffffffffffffffffffffffffffffffffffff1602179055505061010d565b600080fd5b600073ffffffffffffffffffffffffffffffffffffffff82169050919050565b600061009b82610070565b9050919050565b60006100ad82610090565b9050919050565b6100bd816100a2565b81146100c857600080fd5b50565b6000815190506100da816100b4565b92915050565b6000602082840312156100f6576100f561006b565b5b6000610104848285016100cb565b91505092915050565b6108668061011c6000396000f3fe60806040526004361061004e5760003560e01c806302c5fcf81461005a578063474cf53d1461007657806366514c971461009257806380500d20146100bb578063d4c40b6c146100e457610055565b3661005557005b600080fd5b610074600480360381019061006f91906103f4565b61010d565b005b610090600480360381019061008b9190610495565b610113565b005b34801561009e57600080fd5b506100b960048036038101906100b491906104e8565b6101d9565b005b3480156100c757600080fd5b506100e260048036038101906100dd919061054f565b6101df565b005b3480156100f057600080fd5b5061010b60048036038101906101069190610611565b610352565b005b50505050565b60008054906101000a900473ffffffffffffffffffffffffffffffffffffffff1673ffffffffffffffffffffffffffffffffffffffff166323b872dd60008054906101000a900473ffffffffffffffffffffffffffffffffffffffff1633346040518463ffffffff1660e01b8152600401610190939291906106d1565b6020604051808303816000875af11580156101af573d6000803e3d6000fd5b505050506040513d601f19601f820116820180604052508101906101d39190610740565b50505050565b50505050565b60008054906101000a900473ffffffffffffffffffffffffffffffffffffffff1673ffffffffffffffffffffffffffffffffffffffff166323b872dd3360008054906101000a900473ffffffffffffffffffffffffffffffffffffffff16856040518463ffffffff1660e01b815260040161025c939291906106d1565b6020604051808303816000875af115801561027b573d6000803e3d6000fd5b505050506040513d601f19601f8201168201806040525081019061029f9190610740565b5060003373ffffffffffffffffffffffffffffffffffffffff16836040516102c69061079e565b60006040518083038185875af1925050503d8060008114610303576040519150601f19603f3d011682016040523d82523d6000602084013e610308565b606091505b505090508061034c576040517f08c379a000000000000000000000000000000000000000000000000000000000815260040161034390610810565b60405180910390fd5b50505050565b50505050505050565b600080fd5b600073ffffffffffffffffffffffffffffffffffffffff82169050919050565b600061038b82610360565b9050919050565b61039b81610380565b81146103a657600080fd5b50565b6000813590506103b881610392565b92915050565b6000819050919050565b6103d1816103be565b81146103dc57600080fd5b50565b6000813590506103ee816103c8565b92915050565b6000806000806080858703121561040e5761040d61035b565b5b600061041c878288016103a9565b945050602061042d878288016103df565b935050604061043e878288016103df565b925050606061044f878288016103a9565b91505092959194509250565b600061ffff82169050919050565b6104728161045b565b811461047d57600080fd5b50565b60008135905061048f81610469565b92915050565b6000806000606084860312156104ae576104ad61035b565b5b60006104bc868287016103a9565b93505060206104cd868287016103a9565b92505060406104de86828701610480565b9150509250925092565b600080600080608085870312156105025761050161035b565b5b6000610510878288016103a9565b9450506020610521878288016103df565b9350506040610532878288016103df565b925050606061054387828801610480565b91505092959194509250565b6000806000606084860312156105685761056761035b565b5b6000610576868287016103a9565b9350506020610587868287016103df565b9250506040610598868287016103a9565b9150509250925092565b600060ff82169050919050565b6105b8816105a2565b81146105c357600080fd5b50565b6000813590506105d5816105af565b92915050565b6000819050919050565b6105ee816105db565b81146105f957600080fd5b50565b60008135905061060b816105e5565b92915050565b600080600080600080600060e0888a0312156106305761062f61035b565b5b600061063e8a828b016103a9565b975050602061064f8a828b016103df565b96505060406106608a828b016103a9565b95505060606106718a828b016103df565b94505060806106828a828b016105c6565b93505060a06106938a828b016105fc565b92505060c06106a48a828b016105fc565b91505092959891949750929550565b6106bc81610380565b82525050565b6106cb816103be565b82525050565b60006060820190506106e660008301866106b3565b6106f360208301856106b3565b61070060408301846106c2565b949350505050565b60008115159050919050565b61071d81610708565b811461072857600080fd5b50565b60008151905061073a81610714565b92915050565b6000602082840312156107565761075561035b565b5b60006107648482850161072b565b91505092915050565b600081905092915050565b50565b600061078860008361076d565b915061079382610778565b600082019050919050565b60006107a98261077b565b9150819050919050565b600082825260208201905092915050565b7f4661696c656420746f2077697468647261772045746865720000000000000000600082015250565b60006107fa6018836107b3565b9150610805826107c4565b602082019050919050565b60006020820190508181036000830152610829816107ed565b905091905056fea2646970667358221220b98156caac33d7832c33bfa7868b7de492142b0061ca162ed6a350550eec13c564736f6c63430008180033",
  "linkReferences": {},
  "deployedLinkReferences": {}
}